:400000000080002011000000D1010000D101000008B5054B1A6803F53F5302331A6000F095FB00F0D7F800BFFA46004010B5054C237833B9044B13B10448AFF300800123E3
:40004000237010BD2881FF1F00000000DC1E000008B5064B1BB106480649AFF300800648036813B1054B03B1984708BD00000000DC1E00002C81FF1F0881FF1F0000000035
:400080000047000008B5184C237813F0C00F08D14023237040F2EE2000F08AFC802323700BE0257805F0C005802D0BD14023237040F2EE2000F07CFC257042F61100FFF773
:4000C000DFFF00E0237840F2EE2000F071FC62B600F090FB002001F055FE01F08BFE034800F01AFBFEE700BFFA460040001C4E0E002008B5014600F089FE00F0BFFE00283D
:40010000FBD0BDE8084000F091BF2DE9F84303EB830300275E0080468946144617806436C1F3871500F0C8FF28B90120013E00F03FFCB6B21AE0B8015DB14044402100F0EC
:4001400081FF23880137013D4033FFB2EDB223800CE009F03F094044494600F073FF238828469944A4F80090BDE8F883002ED9D11020BDE8F8832DE9F84300238046894663
:40018000154613800A24102600F08AFF28B90120013C00F00DFCA4B215E000F06FFF0746002818BF022428883946404400F090FF2B881F44BFB2002F09F1FF3318BF002610
:4001C0009F422F8001DA002CDED13046BDE8F883FEE7000008B51249124B4A1C1AD053F8106C53F80C0C53F8085C0022AA4200EB020403D0B45884500432F7E753F8040C7F
:400200000022824203D00025A5500432F9E710330139E2E701F026FEFFF734FFFEE700BF00000000C022000008B5114A114B1A609A6842F400729A600023032B98BF0E4A39
:400240004FEA830094BF52F823100C490C4A0133302B1150F1D10B4B19780B4B19700B4B1A6000F017F80A4B00221A6008BD00BF0004FA050CED00E000000000D1010000DD
:400280000080FF1FBC7600400481FF1F08ED00E00081FF1FF8B572B6564B00241A7842F004021A70544B0021234418689A88063401F007FE302CF5D1002319464F4C0022CF
:4002C0001859643420F0FF06C0B2450004EB4104AA4208D004EB020EA75C9EF801E0023207F806E0F4E70433642B0144E6D1444B444D1A78192642F002021A701A7C002497
:4003000042F002021A742B7843F040032B703E4B1A7842F010021A703C4A03F62E635168106803C31189198052F80A3F38490B6053684B60374B1A78A3F2A22342F0080293
:4003400083F8A222612283F8802703221A801B229A70062283F88022522203F5C0731A702D4B1A782D4BD2B21A704FF4E162A3F27F431A8041F2512223F8022C284B4FF479
:40038000F0701B7803F0010343EA440400F040FA013E04F003042CD0032CEFD1214A4FF480731380204907231370482000230B708870137053711D4B02221A7093F8A1239B
:4003C0001B4C42F0010283F8A123812283F8FF27184B194A1B78DBB203F007011B0911705370164B44221A7095E80F0007C42380F8BDFEE7E8460040E01E0000101F000015
:4004000003500140A0430040C2430040D020000062510040224300400F010049A146004025420040044000400640004001400040B0430040CF0100496E5800407658004026
:400440002DE9F04FADF54B7D0390FFF751FE002446AD0DF1160240F20E210A232846FFF78AFE064601F094FC039A4042904204D3A54B80221A7000F093FA002EE8D101F038
:4004800079FC304601F07EFC01F0B4FC2B78413B382B00F2308101A252F823F081050000E1050000F7060000F70600009F050000E9060000F70600008D050000F70600009B
:4004C000F7060000F7060000F3060000F7060000E9060000F7060000F3060000E9060000F70600009F060000F3060000F7060000A5060000F7060000F7060000F7060000FE
:40050000F7060000F7060000F7060000F7060000F7060000F7060000F7060000AD060000B1060000F7060000F706000051040000F7060000C3050000F7060000F706000058
:40054000F7060000F7060000F7060000F7060000F7060000F7060000A9060000F7060000E9060000D7060000C9060000F7060000C3060000F7060000F3060000F306000091
:40058000AC786B78640044EA4324B2E0AC786B78640244EA4344EB7844EA4304A9E05A4B80221A700D2300222B70284601211346FFF7ABFD00F080FD0028FBD000F0F0F9A8
:4005C00046E76978AB78002243EA012113B28B4202F1010202DA185DE854F7E728468EE0AB786E7843EA0626EB78462B4BD1E5B2C5F5807B5E45C4F307430DF58E7C0293A7
:40060000C4F3072924F0FF0A94BF4FF0000B4FF0010B0027E046B6F5807F04D0F8B20AEB0020002202E0002DF8D116E0115C0DF1180C02F80C100132B2F5807FF6D1C5F555
:4006400080720CEB05004146B24238BF3246CDF804C001F02DFCDDF804C06246029849460137CDF804C000F091F9FAB2C5F580755A45A844DDF804C001D80025CBE700F03B
:40068000B3F90D2300E03F230D2B8DF8183104D19DF81B31462B08BFA41946A82EE01B4808212CE01A480DE0532325E0592323E059232B70002201236B70AA7028460321AA
:4006C0001EE0144802211AE0442300222B706A702846022114E087232B7095236B701E23AB70284603210AE000222A702846012106E00D2300E03F232B702846012100225F
:400700001346FFF702FDA3E6FA460040E4200000EB200000ED20000010B5044600F08CF810B1002000F039F9074B1A7802F0C002402A03D11A702046FFF782FE80221A7058
:40074000BDE8104000F02CB9FA460040704700001E4B1A78A3F65D3342F0020283F85D2B93F85F2B02F08F0242F0100283F85F2B93F8682B02F0CF0283F8682B93F8682B2D
:4007800042F0300283F8682B93F8682B02F0F00283F8682B93F8682B42F00F0283F8682B4FF40052A3F8612B4FF48052A3F8632B002283F8602B1A7842F001021A7093F84A
:4007C0005E2B42F0010283F85E2B7047004F0040074B1A7842F001021A701A7C42F001021A7493F85D2B42F0010283F85D2B7047A343004010B5054C23781BB9FFF7A8FFAB
:4008000001232370BDE81040FFF7E2BF4481FF1F0230800800F0058000BF013800467FF4FCAF7047EFF3108072B6704780F31088704700BFAFF3008038B500F00FF900F087
:40084000B9F9002838D100F0EFF9072804460FD11B4B1A78900703D4012000F0BDF8F7E71A78910704D51B789B0814BF0724002400F0C0F90CBB00F0F1F800F09BF9D8B9A1
:40088000012000F07FF9072805D04FF0FF3410E02B789B07F9D40B48022100F0F1F80228074DF5D12B789A0703D4012000F094F8F8E700F09FF900E00424204638BD00BF63
:4008C000224700405481FF1F4128F8B505460E4617461C460AD8411F3A298CBF002101213F2804D8B6F5807F29D805E00121812E28BF0121102C22D10FB301BB00F05AF918
:40090000F8B92346284631463A4600F0D3F80728044611D11B4B1A781F4612F0020F03D1012000F059F8F5E71A78900702D51B789B0808D04FF0FF3400F05CF91FE00124B7
:400940001DE004241BE0104B28461A7831465B7800F0F8F807280446EED13A78094B910703D4012000F038F8F7E71A789207E1D51B789B080CBF00246FF00004DCE7204674
:40098000F8BD00BF224700405481FF1F3F2894BF4FF480731023FFF797BF01BE70470000024B1A7842F001021A707047F646004010B50446B4F5004F064B05D91868FFF7C5
:4009C00027FFA4F50044F5E758686043BDE81040FFF71EBF0C81FF1F024B1B7A5843FFF717BF00BF0C81FF1F08B5FFF71BFF00BF00BF00BF00BF00BF00BF00BF00BF00BF0B
:400A000000BF00BF00BF00BF00BF00BF00BF064B1A8892B242F004021A801B88BFF36F8FBDE80840FFF702BF00480040054B00F01F001B6800F1100253F8220043F8221036
:400A4000704700BF08ED00E000F01F0000F16040490100F56440C9B20170704708B5FFF7E1FE064B1A7842F008021A701A7C42F008021A74BDE80840FFF7D8BEA0430040CE
:400A800070B506460D460024E3B2AB420CD2074B1B78DB0703D40120FFF79EFFF7E7044B1B7833550134EFE7284670BD2247004020470040F0B5214D2C78A40739D5204C82
:400AC000B6262670D5262670022626702E7806F0020606F0FF0576BB202B207001D000250CE03F28FBD801EB00273F02EE5D0135F6B2B5F5807F2670F8D1F0E7AEB29E42D3
:400B000003D2565D01352670F8E7B3F5807F01D00720F0BD3F28FBD800F5103001EB0021490100235A5C0133D2B2202B2270F9D1EEE70420F0BD0920F0BD00BF2247004054
:400B40002047004070B50D4D2C78A60714D50C4CB6262670D8262670052626702D78AD0708D42070080AC9B22070217022702370072070BD092070BD042070BD22470040BA
:400B800020470040094A137899070DD5084BB6211970E12119700E211970127892075ABF187007200920704704207047224700402047004038B5FFF735FE0C4B197879B912
:400BC00001250B4A1D7014682C400AD0146824F00104146000BF00BF00BF5D600C4600E00424FFF723FE204638BD00BF4881FF1F0400084010B5FFF715FE094B0022596865
:400C00001A70012908D107490C6844F001040C6000BF00BF00BF5A60BDE81040FFF706BE4881FF1F04000840074B1B789B0708D5064BB6221A70E0221A700D221A70072062
:400C400070470420704700BF2247004020470040F8B5FFF7E7FD3D4B01261A78022542F001021A701A7C3A4C42F001021A7403F5E75318331E7003F8945C13F88D2C07463F
:400C800002F07F0203F88D2C0020FFF7A5FE2378304603F0F90323702E4B1A7802F0DF021A70237833432370FFF796FE2820FFF793FE294B28461A7802F07F021A701A7859
:400CC00002F0BF021A7023782B432370FFF784FE2378384643F004032370204B00241C705C70FFF7A3FD1E491720FFF79FFE17200721FFF7A9FE1B491520FFF797FE1520BA
:400D00000721FFF7A1FE18491820FFF78FFE18200721FFF799FE20461449FFF787FE20460721FFF791FE30461149FFF77FFE30460721FFF789FE28460E49FFF777FE2846A0
:400D40000721BDE8F840FFF77FBE00BFA54300409443004012600040F8510040846000409B15000099150000B1130000F5140000291500005D150000184B4FF4000210B596
:400D80001A604FF080721A6001221A60042402221A601C60124B00241C70124B01B103221A70114B114A187000231370104A01201370104A1370104A1370104A1370104A90
:400DC0001370104B03221A70802203F8202CFFF71FFD0D4B04221A7010BD00BF00E100E06281FF1F096000405D81FF1F7B81FF1F7081FF1F7881FF1F7A81FF1F7D81FF1FFB
:400E00005C81FF1F286000401260004070B5074C064623780D461BB9FFF71AFF0123237030462946BDE87040FFF7A6BF5081FF1F0A4A002313700A4A13700A4A13700A4A71
:400E400013700A4A13700A4A13700A4A13700A4B03221A70802203F8202C70476281FF1F7B81FF1F7081FF1F7881FF1F7A81FF1F7D81FF1F5C81FF1F28600040014B1878B1
:400E8000704700BF7B81FF1F0138C3B2072B0CD8074A1B01DBB2985C01329B5C00F00F0043EA0020023880B270470020704700BF0C600040431EDBB2072BF0B52FD8184EE3
:400EC0000C2404FB0064E7881B01BFB2154DC7F50077DBB2BA421D4403D9E288C2F5007292B20C2404FB0064E7780F4C47EA12271F55D7B201341F5549B90C2202FB006047
:400F0000002242704179094AC9B29954F0BD0024A7B29742F1D20F5D01342F70F8E7F0BD7E81FF1F886000400C6000400E600040431EDBB2072B0BD8064A0C2101FB00209B
:400F40000022427041791B01034ADBB2C9B29954704700BF7E81FF1F0E600040F8B5431EDBB2072B07460D46144616D8B9B11B010C4EDBB21E44FFF787FFA04228BF204615
:400F800084B200239AB2A24203D23278EA540133F8E73846FFF7CCFF02E0002400E00C462046F8BD88600040194B1A7812060AD501331B78212B28D1164B07221A80164AA1
:400FC0005A6000F04BBA1B781B061ED4134B1B78DBB2202B0DD0222B17D1114B1A78114BD2B21A80104B1A7842F002021A7000F015B9084B07221A80074A5A600A4B1A78E6
:4010000042F001021A7000F051BA0020704700BF006000406481FF1F1C81FF1F01600040026000405881FF1F5A81FF1F034B00221A70034B1878FFF77BBF00BF5A81FF1F0F
:401040005681FF1F70B50B4B0A460B4C19780C2505FB01410989064689B28A4204D91A7805FB0244228992B231461878BDE87040FFF720BF5781FF1F7E81FF1F064B0749E7
:401080001A780C2000FB02125278012A02D11878FFF7FABE002070475681FF1F7E81FF1F034B044A1B780C2101FB0323587870475681FF1F7E81FF1F034B044A1B780C2101
:4010C00001FB0323587870475781FF1F7E81FF1F0A460349034608781946FFF73FBF00BF5681FF1F30B51A4B1A481A8801780A4492B219491A80194BCAB21C88A4B284B164
:40110000174A91420CD05A681278D2B201F8012B5A6801325A601A88013A92B21A80EAE7082203780F4C082B0F4B00D042B10F490D7885F080050D700F212170022101E006
:401140000221217019700A4B02701A7030BD00BF5E81FF1F5C81FF1F006000406481FF1F086000407981FF1F6281FF1FEC81FF1F7C81FF1F074B02221A70074B80221A70B5
:40118000064B0F221A70064A00231370054A0120137070476281FF1FEC81FF1F7981FF1F5C81FF1F7C81FF1F10B5154B1A78154B02F00F021988023AD2B2114489B2198025
:4011C0001149124B188880B278B172B1586811F8014B013AE4B204705868D2B2013058601888013880B21880EBE7094B1A70094B1A7882F080021A70074B0B221A7010BD06
:40120000296000405E81FF1F006000406481FF1F7C81FF1FEC81FF1F7981FF1F064A06231370064A01201370054B80221A70054B00221A70704700BF6281FF1F7981FF1F90
:40124000EC81FF1F7C81FF1F054B9A683AB19A68044910709A680988518000229A6070476481FF1F5E81FF1F08B5124B1A78D2B21A701B78DBB21A0602D50F4A137008BD13
:401280000220FFF7E1FF0D4B1B7803F06003202B05D0402B06D043B900F0FCFB04E000F0B7FD01E000F044FD10B9034B03221A7008BD00BF286000407981FF1F006000404D
:4012C00008B50849084B01201A8809780A4492B21A80064B00221A70FFF7B6FF044B03221A7008BD5C81FF1F5E81FF1F6281FF1F7981FF1F08B50C4B1B78DBB2042B07D067
:40130000062B09D0022B0DD1BDE80840FFF7D8BFBDE80840FFF748BF0320FFF795FF034B03221A7008BD00BF6281FF1F7981FF1F08B5054B002201201A70FFF785FF034B4B
:4013400003221A7008BD00BF6281FF1F7981FF1F08B50A4B1A7832B11978094A41F08001117000221A70074B002201201A70FFF76BFF054B03221A7008BD00BF7A81FF1FBC
:40138000086000406281FF1F7981FF1F074B1B78DBB2042B05D0062B05D0022B05D1FFF7A1BEFFF7C5BFFFF7D3BF70476281FF1F10B51D4C2378DBB2DA0633D518060AD5A3
:4013C00003F00F03012B2DD1FFF74EFF174B1B78190609D510BD5A0602D5FFF7D7FF03E09B061FD5FFF786FF23781B061AD4104B104A1B78127813430F4A137012789342B9
:4014000010D10A4B08491A782078D2B2000605D41A78D2B20A700A7802F00F021B789A42EFD110BD10BD00BF286000407981FF1FEC81FF1F7C81FF1F29600040054A00233A
:401440001380054A916819B191680B7092685380704700BF5E81FF1F6481FF1F10B50F4C23889BB213B9FFF785FE14E00C4B02221A700C4B00221A70FFF7E0FF0A4B1A78FB
:40148000013B1B7843EA0223228892B29A4288BF2380FFF727FE012010BD00BF6481FF1F6281FF1FEC81FF1F0760004008B50C4B04221A700B4B80221A70FFF7BFFF0A4B0A
:4014C00001201A78013B1B7843EA0222074B198889B2914288BF1A80054B0B221A7008BD6281FF1FEC81FF1F076000406481FF1F7981FF1F094B1B78094B1A7B02F0030256
:40150000012A03D0DA7B82F08002DA7301225A73044B1A7802F0FE021A7070470E6000407E81FF1F0B600040094B1B78094B1A7E02F00302012A03D0DA7E82F08002DA7639
:4015400001225A76044B1A7802F0FD021A7070471E6000407E81FF1F0B6000400B4B1B780B4B93F8242002F00302012A05D093F8272082F0800283F82720012283F825206F
:40158000044B1A7802F0FB021A7070472E6000407E81FF1F0B6000407047FFF749BC00007FB5144B02466D4603F11006186859682C4603C40833B3422546F7D1BAB12223AD
:4015C0001370032353700C4B13F8011B04ACC9B204EB111001F00F01214411F8101C10F8100C907002F8041F04498B42ECD104B070BD00BFEF2000000001004908010049C8
:4016000030B51C4B01211C4A0C2000FB012483F87200657925B12479240658BF082000E0802018700C2000FB012210890131C0F3072003F8020C10890929C0B203F8010C9E
:40164000D08803F11003C0B283F86800D088C0F3072083F86900D088C0B283F86600D288C2F3072283F86720CDD1044BFF221A7030BD00BF0E6000407E81FF1F0A60004002
:40168000074B1A78074B03EBC2035B6803F108021B7A834286BF02EBC0004068002070475D81FF1F3C210000F8B5394B1A78002A6CD018780138C0B2FFF7E2FFC368047A78
:4016C000083303EBC404A34260D013F8082C314931488D5C805C854256D0895C13F8070C884251D12D4909788A424DD113F8060C13F8056C00F07F02511E10F0800F2848B8
:401700004FEA01114FF00C05C9B206F0030605FB020506D00127BE426F7014BF0D26072605E00027012E6F7014BF092605266E711C4D01266E540C25554333F8046C421946
:40174000168113F8066C167113F8056C46550020D07015891448C5F30725455415890130EDB24554D5887930EDB24554D5880130C5F307254554D5880338EDB24554D28866
:401780000130C2F30722425408339CE7F8BD00BF7B81FF1FEA81FF1F6081FF1F046000407E81FF1F0E6000400C60004008B5064B18780138C0B2FFF763FF20B143681B79E4
:4017C00000EBC300406908BD7B81FF1F2DE9F04100210C254D435F4C0131002362190929635593705370D370537113819372F0D128B15949594A0B7013704B705370584BC1
:401800001A78002A00F0A48018780138C0B2FFF737FF4368057ADB79ED0013F0400F514B1A7814BF42F0010202F0FE021A700122C368D6B2083303EB050E73455FD013F8FE
:40184000067C07F07F018A4257D10C2101FB0241B1F8088033F804CC1FFA88F8E04538BFA1F808C013F8081CDFF8ECC01CF8011013F807CC8C4540D113F8051C17F0800F74
:401880004FF00C0701F0030107FB024715D04FF0010C614587F801C014BF4FF00D0C4FF0070C87F805C013F8027C07F0F707022F19D1032917D02C4914E04FF0000C012934
:4018C00087F801C014BF4FF0090C4FF0050C87F805C013F8027C07F0F707022F03D1032901D022490E700C21514313F806CC671887F804C013F8057C675408339DE70132EB
:40190000092A95D1C36803F1080215440833AB420AD013F8062C0C2002F07F0200FB024213F8081C9172F1E7FFF740FF104B0022186001230C2101FB0341CA80098901339A
:401940000A44092B92B2F5D1BDE8F041FFF758BEBDE8F0817E81FF1FEA81FF1F6081FF1F7B81FF1F7D81FF1F5781FF1F5681FF1F7481FF1F114B197801F07F014A1ED2B2C0
:40198000072A19D80E4B0C2000FB01339978120141F0010199700021D9705978D2B241F0020159701B7913F0800F064B14BF8D218921D154FFF732BC00207047046000400F
:4019C0007E81FF1F0E60004010B51A4B1B7803F07F035A1ED2B2072A29D817490C2000FB03139978120101F0FE0199700021D9701249D2B2545C04F07F045454597801F028
:401A0000FD01597019795B7811F0800F0C4905D0012B01D1505406E00D2303E0012B0CBF082309235354BDE81040FFF7F7BB002010BD00BF046000407E81FF1F0C6000407A
:401A40000E60004010B50E4B1C780E4BE4B218780138C0B2FFF714FE43681B79A3420CD9012C0AD8084B094A195D0120C9B21155074A1278D2B21A5510BD002010BD00BF57
:401A8000046000407B81FF1FEA81FF1F6081FF1F0260004038B5904C002323808F4B1A7812F0800F8E4A127800F08F800A2A00F21181DFE812F05F000F010F010F010F0131
:401AC0000F010B000F017F000F018300854B1A78012A09D1844B1A78844B03EBC2035B685B686360122311E01A78022A13D1804B1878FFF7C5FD002800F0EC804368636049
:401B00006368DA7863689B7843EA02232380BDE83840FFF7A3BC1B78032B27D1754B00227349D0B20D78854207D80878724AEE2808BF13460A788AB106E01878013200283F
:401B4000F3D019780B44EBE7694A6C491278097C914203D16A48FFF723FD694B1A78002A00F0B8801A78D2B2228019E0BDE8384000F04EB91A7812F0030213D0022A40F0D5
:401B8000A980604B22801B785F4A03F07F030C2101FB03239A785D4BD2B21A7000225A706360B4E702232380594B1978574BC9B21970F4E701232380564BF1E70123238018
:401BC000504B554A1B781344EAE7013A0A2A00F28180DFE802F0367F527F067F7F7F0B7F2200434B1A784D4BD2B260E0404B1B7803F0FF0453B9474B1A78944266D01C70C8
:401C0000474B01201870FFF7E1FD5FE0601EC0B2FFF736FD0028EED15CE0FFF713FF002858D0384B01221C783E4BE4B21C703C4B1A70FFF739FD384B1A5D3B4BD2B21A552D
:401C400044E01B7803F00303012B32D00CD3022B40D103F1804303F5C0431B78002B39D1BDE83840FFF7B0BE214B1B78012B31D1274B1A7802F0FD0219E01B7803F00303C7
:401C8000012B16D00BD3022B24D103F1804303F5C0431B78F3B9BDE83840FFF76BBE144B1B78012B16D11A4B1A7842F002021A700CE0144B1A78012A0CD81B781B4A0C48F1
:401CC000DBB2D15C007821EA0001D154BDE83840FFF7A4BA002038BD6481FF1F0060004001600040036000405D81FF1F3C2100000260004098210000282100007A2200007B
:401D0000EF81FF1F046000407E81FF1F5181FF1F7D81FF1F7B81FF1FEA81FF1F7A81FF1F7881FF1F7081FF1F6081FF1FED81FF1F084B1B781B060AD5074B1B78012B06D10D
:401D4000064B074A5A6012781A80FFF787BB0020704700BF00600040016000406481FF1F00210000024B1A7842F080021A7070477A640040024B1A7802F07F021A7070472B
:401D80007A640040014B1860704700BF0A640040024B1B78024B1868704700BF0A6400404A640040034B1B781B0702D5024B1B68F8E770476D6400404A6400400A4A08B50E
:401DC0004FF0FF33136042F8203CFEF72BFD074B1A7842F010021A70FEF728FDFFF7E2FF034B00221A7008BD2A6400409D6400408D64004010B5054C23781BB9FFF7DEFF52
:401E000001232370BDE81040FFF7ACBF5381FF1F104B1B7803F00303012B0CD0022B0ED10D4B0E4A1B780C2103F07F0301FB032308339B7801E0084B1B78DBB200E00023FC
:401E4000074A1268D35C022B01D1FFF7ADB80020704700BF00600040046000407E81FF1F7481FF1F70B50E4B0E4D0024ED1AAD101E46AC4204D056F8242090470134F8E7A0
:401E800000F004FA084D094B0024ED1AAD101E46AC4204D056F8242090470134F8E770BD9822000098220000A02200009822000010B50023934203D0CC5CC4540133F9E7FF
:401EC00010BD02440346934202D003F8011BFAE770470000E02200000F00000000000000004F00400C00005100406000C05100401000000001400010001401400008004044
:401F00000140000A004C0140000200500140200001450040014F0040025200400164004001030140280A0140090B0140320C0140100D0140040E0140010F014003170140DE
:401F400003190140034001400641014006420140054301400244014001450140014601400547014005480140044C014003500140015101407E020A4B31807C408D0DEE08AB
:401F8000404549FF4AFF4BFF4F01501852805A045B045D995F016040624064406540668068806A806C806E80C045C9FFCAFFCBFFCD83CE03CF01D018DA04DD09DF01E0400A
:401FC000E240E440E540E680E880EA80EC80EE804102450248024C027102A002A502D081D218404549FF4AFF4BFF4D834E034F0150185A045D095F01604062406440654063
:40200000668068806A806C806E809201AE01B601BE40C045C5ECC720C823C9FFCAFFCBFFCD83CE03CF01D018D401D804DA04DB04DD99DF01E040E240E440E540E680E8803E
:40204000EA80EC80EE8009021002194041024502480249054C0250025945AF01C208C401D081D218D60B38023E0158045F011B01E810EA02EE0AE810EA02EE0A33813640B8
:40208000CC709F01A301A640A780AF01EE1063029F01A301A640A780D64018109F01A640A780C6106080D8029C809C8008080B040F409C80C20EAE40AF81B410EA40EE50D8
:4020C000AC08AF44B480E80801010D010F01002A0000000000000000C00000808000800000000000415652424F4F543130313030313233343536373839414243444546000A
:402100002800000000010400010000000000000000014359555342000000303030303100000000000000000012034D00530046005400310030003000010000000100000017
:4021400044210000010000007A22000001000000542100000100000037220000030000007E21000000000000000000000000000000000000000000007C210000020A000042
:402180008103080002000100820240000A000100030240000A000203040309042C0343007900700072006500730073002000530065006D00690063006F006E00640075007A
:4021C000630074006F007200100355005300420055004100520054003803430044004300200043006F006D006D0075006E00690063006100740069006F006E00200049000A
:402200006E007400650072006600610063006500260343004400430020004400610074006100200049006E0074006500720066006100630065000009024300020101C032D4
:40224000090400000102020103052400100104240202052406000105240100010705810308000A09040100020A0000040705820240000A0705030240000A1201000202007B
:402280000008B40432F2010001028001F8B500BFF8BC08BC9E4670475100000029020000F8B500BFF8BC08BC9E4670472D000000C02200000881FF1F20000000F000000075
:4022C000000000000000E02EC05D00001800000000366E0100C20100000008000000000000000000000000000000000000000000000000000000000000000000000000002B
:40230000000000000000000000000000000000000000000000000000000000000000000000000000000000000000000000000000000000000000000000000000000000009D
:40234000000000000000000000000000000000000000000000000000000000000000000000000000000000000000000000000000000000000000000000000000000000005D
:40238000000000000000000000000000000000000000000000000000000000000000000000000000000000000000000000000000000000000000000000000000000000001D
:4023C00000000000000000000000000000000000000000000000000000000000000000000000000000000000000000000000000000000000000000000000000000000000DD
:40240000000000000000000000000000000000000000000000000000000000000000000000000000000000000000000000000000000000000000000000000000000000009C
:40244000000000000000000000000000000000000000000000000000000000000000000000000000000000000000000000000000000000000000000000000000000000005C
:40248000000000000000000000000000000000000000000000000000000000000000000000000000000000000000000000000000000000000000000000000000000000001C
:4024C00000000000000000000000000000000000000000000000000000000000000000000000000000000000000000000000000000000000000000000000000000000000DC
:40250000000000000000000000000000000000000000000000000000000000000000000000000000000000000000000000000000000000000000000000000000000000009B
:40254000000000000000000000000000000000000000000000000000000000000000000000000000000000000000000000000000000000000000000000000000000000005B
:40258000000000000000000000000000000000000000000000000000000000000000000000000000000000000000000000000000000000000000000000000000000000001B
:4025C00000000000000000000000000000000000000000000000000000000000000000000000000000000000000000000000000000000000000000000000000000000000DB
:40260000000000000000000000000000000000000000000000000000000000000000000000000000000000000000000000000000000000000000000000000000000000009A
:40264000000000000000000000000000000000000000000000000000000000000000000000000000000000000000000000000000000000000000000000000000000000005A
:40268000000000000000000000000000000000000000000000000000000000000000000000000000000000000000000000000000000000000000000000000000000000001A
:4026C00000000000000000000000000000000000000000000000000000000000000000000000000000000000000000000000000000000000000000000000000000000000DA
:402700000000000000000000000000000000000000000000000000000000000000000000000000000000000000000000000000000000000000000000000000000000000099
:402740000000000000000000000000000000000000000000000000000000000000000000000000000000000000000000000000000000000000000000000000000000000059
:402780000000000000000000000000000000000000000000000000000000000000000000000000000000000000000000000000000000000000000000000000000000000019
:4027C00000000000000000000000000000000000000000000000000000000000000000000000000000000000000000000000000000000000000000000000000000000000D9
:402800000080002011280000453000004530000008B500F031FC000010B5054C237833B9044B13B10448AFF300800123237010BD008AFF1F00000000A020010008B5064BE2
:402840001BB106480649AFF300800648036813B1054B03B1984708BD00000000A0200100048AFF1F0881FF1F00000000132803D8094B53F8200005E000F14043A3F5A043EB
:40288000672B07D8037801290CBF43F0010303F0FE030370704700BF1081FF1F132803D8194B53F8200005E000F14043A3F5A043672B28D80378DBB206291FD8DFE801F043
:4028C000041E090E1411170003F07F0343F00C0318E003F07F0343F0040313E043F0800310E043F082030DE043F08C030AE0027843F0880342F00102027003E003F07F03E4
:4029000043F00203037070471081FF1F08B500F0D3FE00B208BDC9B200F028BF08B500F06DFE05480521FFF7B9FF04480421FFF7B5FF012008BD00BF105000401150004005
:4029400008B500F069FE05480121FFF7A7FFBDE8084003480121FFF7A1BF00BF105000401150004008B501F0BDFA10B101F0A8FA80B200B208BD013880B2012100F06CBF7E
:4029800008B500F0BBFE043818BF012008BD002010B5014601F05CF9152401F091F940B96420013C00F0DCFF14F0FF04F5D1204610BD01F05DFA012010BD0000044B054A39
:4029C0001A60054A1A61054A5A61054A1A627047888AFF1F65290000893E0000153F0000FD3E0000074B084A1A60084A1A61084A5A61084A5A60084A9A60084ADA60084AC5
:402A00001A627047108BFF1F0D29000017290000552A00001D2900004129000077290000812900002DE9F04107460E460024B4421FFA84F808DA064D2B68984720B16B68D9
:402A4000984738550134F2E74046BDE8F08100BF1C8AFF1F034B044AC9B25A60034A1A60FFF7E0BF1C8AFF1F61360000B936000008B502F005F901F023F928B101F032FA96
:402A800010B1084800F0DCF801F04EFAB0F5966F06D1054B40221A70BDE8084000F058BF08BD00BF248AFF1FFA46004008B500F0EBFC00F03DFD02F0C3F8BDE808400148E6
:402AC00002F0CCB8712A000000F04ABFF8B506460C468F180025BC4207D0336830461B6814F8011B98470544F5E72846F8BD38B505460C46084641B10BF008FE2B68024657
:402B00005B6828462146984738BD38BD08B503681B68984708BD38B50D210546FFF7F6FF0A2104462846FFF7F1FF204438BD38B50446FFF7DCFF05462046FFF7ECFF28446C
:402B400038BD30B500238BB08DF82430012A98BF0A220DF12304B1FBF2F303FB1211CDB2092D94BF30353735EDB2214604F801590BB11946EFE7FFF7BAFF0BB030BD10B57D
:402B800022B90268C9B21268904710BDD2B2BDE81040FFF7D6BFFFF7F2BF007E704713B50446007E8DF8071058B1E3691B6A98470028FAD0E3690DF107001B6901219847AA
:402BC000012002B010BD000038B5037C04460D465BB9C369ED005B68984720760348E369B0FBF5F0DB6880B2984738BD00366E0108B5037C1BB90376C3699B68984708BD56
:402C000008B5037C13B9C369DB69984708BD000010B54FF47A7400238460084C4360037680F8603080F861300A2304600174C261A0F8623009B10123037610BD102401004E
:402C400038B5C36904461B689847C5B265B194F96000E36920305B6920442946984794F860302B4484F86030284638BD10B50446FFF7E6FF94F9600010BD10B50446FFF760
:402C8000DFFF94F96030002BC3BF94F96130E41894F820004FF0FF3010BD10B50446FFF7CFFF94F96030002B12DD94F861104A1CD2B284F8612049B252B221449A4291F8B4
:402CC000200007D1002384F8613084F8603010BD4FF0FF3010BD0000014B0360704700BFC823010008B562B6074B80221A70FFF765FEFFF74CFEFFF775FEFFF7D7FE00F077
:402D000029F800F041F8FCE7FA460040F8B50E4C0E4E0F4D04F1640220460121FFF778FF04F1880731462A46204602F0B9FB04F1EC0238460021FFF76BFF384631462A4619
:402D4000BDE8F84002F0ACBB248AFF1FD92C00000C81FF1F10B50A4C4FF416512046FFF733FF41F28830FFF7AFFE20460549FFF7DEFEBDE810400D200021FFF78FBD00BFF6
:402D8000248AFF1F5024010010B50D48FFF76EFF002814DD0A48FFF780FF0A4B482818601C4603D10D200121FFF760FD23684C2B05D1BDE810400D200021FFF757BD10BD6E
:402DC000248AFF1F348BFF1F2DE9F041002407460E4625463B1919790A223046FFF7DBFE2E2180463046FFF791FE01344044032C0544EFD13046F9790A22FFF7CCFE28441B
:402E0000BDE8F08130B58371034D9DF80C30056001714271C37130BD80240100044B054A1A6000221A715A719A71DA71704700BF388BFF1F80240100014B0360704700BF2B
:402E4000C8230100F0B590F8B530202B01D0002304E0012380F8B7300020F0BDDCB2944214D290F8B540CF5C06190134E4B21E44202C1D4686F8947003F1010380F8B5400D
:402E8000ECD1012380F8B730E818F0BD2046F0BD13B5026802AB03F8011D946919460122A04702B010BD90F8B400704790F8B43033B1013BDBB280F8B4301844007D70473D
:402EC0004FF0FF30704790F8B43013B10344187D70474FF0FF307047704700000548002343604FF47A738360034B0449044A036002F0D6BA408BFF1FA8240100392E0000FD
:402F00000C81FF1F704708B5012000F06DFA012000F070FA0A200421FFF7C0FC0B200421FFF7BCFC0C200521FFF7B8FC0D200421FFF7B4FCBDE80840002000F0A1BD000031
:402F400008B500F08FFDBDE8084002480249034A02F0A6BAFC8BFF1F052F00000C81FF1F07B5002100910A460B460448FFF74AFF03B05DF804EB00F055B800BF088CFF1F74
:402F800007B5002100910A460B460348FFF73AFF03B05DF804FB00BF148CFF1F07B5002100910A460B460348FFF72CFF03B05DF804FB00BF208CFF1F07B5002100910A463B
:402FC0000B460348FFF71EFF03B05DF804FB00BF288CFF1F08B51248FFF795FF0A200021FFF75CFC07200121FFF758FC09200021FFF754FC0D200021FFF738FC0B20002169
:40300000FFF734FC0A200121FFF730FC0A200121FFF72CFCBDE8084009200021FFF726BCFC8BFF1FFFF7D6BF07B5002100910A460B460348FFF7E6FE03B05DF804FB00BF59
:40304000708CFF1FFEE7FEE7094A08B5136809491844411AB1F5804F01DC106005E00AF00DF90C2303604FF0FF33184608BD00BF6081FF1F5096FF1F08B51249124B4A1C6E
:403080001AD053F8106C53F80C0C53F8085C0022AA4200EB020403D0B45884500432F7E753F8040C0022824203D00025A5500432F9E710330139E2E70AF0F8FAFFF712FE0B
:4030C000FEE700BF000000007062010008B5114A114B1A609A6842F400729A600023032B98BF0E4A4FEA830094BF52F823100C490C4A0133302B1150F1D10B4B19780B4BA1
:4031000019700B4B1A6000F017F80A4B00221A6008BD00BF0004FA050CED00E000280000453000000080FF1FBC7600400481FF1F08ED00E00081FF1F2DE9F04172B6914BD7
:4031400000241A7842F004021A708F4B0021234418689A8806340AF0D7FE122CF5D100258A4C2B19186859681A890A350AF0F0FDB5F5617FF4D1864B05F140251A781C351F
:4031800042F002021A701A7CD4F8940342F002021A742B78D4F8981343F040032B707D4B1A7842F010021A707B4AD4F884331360D4F888335360D4F88C33C2F8C030D4F849
:4031C0009033C2F8C430754BB4F89C2303C3D4F89E03D4F8A2131A80E83B03C3B4F8A6234FF49C711A806E4AD4F8A83302201360D4F8AC335360D4F8B0331361D4F8B43375
:403200005361D4F8B8331362D4F8BC335362D4F8C0331363D4F8C4335363D4F8C8331364D4F8CC335F4C53645F4B1A78A3F2A22342F0080283F8A222612283F880275B4ACA
:4032400092F8008019805A4919230B70488000200B71C8800E200B72488117200B73C8812F200B744882EF200B75C88245F6BF500B7648830B774F4B06211970F321997241
:40328000032313704C4B84211970052103F8011C013B5FFA88F816461F463B789B0605D44FF4F07000F040FB013CF6D1434B522286F800801A70424B19261A78414BD2B295
:4032C0001A7040F62A52A3F27F431A8042F2512223F8022C00243C4B4FF4F0701B7803F0010343EA440400F01FFB013E04F0030446D0032CEFD1354B4FF480721A8034494F
:4033000007221A70082002220A70887000211970597103F8032C93F89E23FF2283F89E23812283F8FC272B4B2B4A1C782B4B2C4E1978E4B21078C9B204F007072409377025
:40334000C0B2747041F003041C7040F003041470402486F8934086F89540224C202626701070197003F58B5344221E33A4F5BB541A70133C95E80F0007C42380BDE8F081FF
:40338000FEE700BFE8460040182501002A25010003500140C243004002510040F051004022510040A086010022430040984600408240004000430040094300400042004050
:4033C0000F010049A1460040254200400440004006400040CF010049F9460040F84600406E580040235B0040014B1870704700BF77640040014B1870704700BF79650040F5
:40340000024B1A7842F080021A70704771640040034B1B785B0602D5024B1B68F8E77047666400404264004008B5114B1A7802F0F8021A701A7802F0FC021A70FFF7E8FF2A
:403440000C4A4FF0FF330C49136000220A6081F884200A4A12780A4A136000F06FFA094B1A7842F010021A70BDE8084000F06ABA71640040226400400264004066640040D6
:40348000326400409664004010B5054C23781BB9FFF7CAFF01232370BDE81040FFF7B0BFAC8CFF1F024B1A7842F080021A70704778650040034B1B785B0602D5024B1B6877
:4034C000F8E770476B6500404865004008B5124B1A7802F0F80242F001021A701A7802F0FC021A70FFF7E6FF0C4A4FF0FF330C49136000220A6081F883200A4A12780A4A92
:40350000136000F01BFA094B1A7842F010021A70BDE8084000F016BA7865004028650040086500406B650040386500409B65004010B5054C23781BB9FFF7C8FF01232370F5
:40354000BDE81040FFF7AEBFAD8CFF1F08B51249032000F021FA0320072100F02BFA0F4B00221A700E4B72226FF481711A700B4420221A700B49042000F00EFA042007214D
:4035800000F018FA084B06221A7047221A74022283F85F2008BD00BF91370000AE8CFF1F8A6500400D3800002565004008B500F0C5F90E4B1A7842F020021A706FF4817283
:4035C00013441A7842F010021A70094B08221A60084A117841F010011170074910220A601A60BDE8084000F0ADB900BF9A65004000E100E09465004080E200E010B5054C85
:4036000063781BB9FFF7A2FF01236370BDE81040FFF7CCBFAE8CFF1F08B500F08FF90D4B1A7802F0DF021A706FF4817213441A7802F0EF021A70084B08221A60074A117886
:4036400001F0EF01117010221A60BDE8084000F079B900BF9A65004080E100E094650040104B08221A60104A9378D1781079DBB2C9B208B98B420ED00C49C85C0133DBB2D1
:40368000402B28BF002393701379C0B233B1064B00221A7102E0064B1878C0B2054B08221A60704780E100E0AE8CFF1F0895FF1F4964004000E100E00D4B08221A600D4B7C
:4036C0009978DA78914205D11B79002B0CBF0020402008E09978DA78D87891429B7828BF4030C01AC0B2044B08221A60704700BF80E100E0AE8CFF1F00E100E0014B1878F1
:40370000704700BF6465004010B51349CB798A79D2B2934202D2541EA34201E09C1A3F2C14BF00240124002CF1D19A420B4A05D11478640702D40A4B187010BD402B094CD4
:4037400028BF0023E0540133CB7113789B0702D5054B10221A6010BDAE8CFF1F64650040446500404895FF1F00E200E070B5074B05465B780E4643B10024E3B2B34204D266
:40378000285DFFF7C1FF0134F7E770BDAE8CFF1F164B1B78DBB213F01E0003D0144A1178014311709B061FD5124B13491878134BC0B21A78D2B28854114A117811B1114975
:4037C0000120087019780131C9B2197019783F2902D90A490020087019780B4B1B789942D6D101231370D3E7704700BF67640040AE8CFF1F496400400895FF1FB18CFF1F71
:40380000B28CFF1FB38CFF1FB08CFF1F0D4B0E491A780978914214D00C4A127812F004020FD119783F2988BF1A701A780849D2B2895C084AC9B211701A780132D2B21A70FD
:40384000E4E77047B48CFF1FB58CFF1F646500404895FF1F44650040F0B52B4B2B4D1F782C8807F00707A4B2A0424CD0284A1678F6B26FB934B158B91A7842F040021A708F
:403880002880F0BD28801A7802F0BF021A70F0BD16F0010621D01F4F1F4D00234FF0010C2B7087F800C03B711C4B1F787A3307F07F0703F87A7C1B781F0700D568B9184B97
:4038C0001C8007232B702B7813F00103FBD1147804F0FE041470104C237012780C4BD4070CD5A3F56873002918800CBF01220322013B1A701A78D207FCD4F0BD034A10808D
:403900001A7816431E70F0BD8240004080400040A243004010400040014000400840004002400040000000000230800800F0058000BF013800467FF4FCAF7047EFF310806B
:4039400072B6704780F31088704700BFAFF30080024B1A7842F001021A707047F646004010B50446B4F5004F064B05D91868FFF7DBFFA4F50044F5E758686043BDE810405D
:40398000FFF7D2BF6481FF1F024B1B7A5843FFF7CBBF00BF6481FF1F054B00F01F001B6800F1100253F8220043F82210704700BF08ED00E000F01F0000F16040490100F5D5
:4039C0006440C9B20170704708B5FFF7B7FF094B1A7842F020021A709A7842F010029A7013F8012C42F0100203F8012CBDE80840FFF7A8BF9C64004008B50B4B1B789B067E
:403A000002D50A4B1B78F8E7FFF798FF084B1A7842F001021A701A7802F0FE021A70BDE80840FFF78FBF00BF6B6400405D6400409D64004008B5074B0F221A70FFF7DCFFCD
:403A4000054B064A1B78064B1B780023137002F8033C08BD8C6400406E6400408E6400406B64004010B5054C23781BB9FFF7E2FF01232370BDE81040FFF7A6BFB78CFF1F44
:403A8000014B1870704700BF7E640040F8B5FFF755FF3D4B01261A78022542F001021A701A7C3A4C42F001021A7403F5E75318331E7003F8945C13F88D2C074602F07F0223
:403AC00003F88D2C0020FFF75FFF2378304603F0F90323702E4B1A7802F0DF021A70237833432370FFF750FF2820FFF74DFF294B28461A7802F07F021A701A7802F0BF027A
:403B00001A7023782B432370FFF73EFF2378224A43F0040323700023137038465370FFF711FF1E491720FFF737FF17200721FFF741FF1B491520FFF72FFF15200721FFF7FC
:403B400039FF18491820FFF727FF18200721FFF731FF15490520FFF71FFF05200721FFF729FF12490720FFF717FF07200146FFF721FF0F490820FFF70FFFBDE8F840082035
:403B80000721FFF717BF00BFA54300409443004012600040F851004084600040FB430000F9430000114200005543000089430000BD43000008B51A4B4FF400021A604FF063
:403BC00080721A6020221A6080221A604FF480721A60144B00221A70134B19B1012901D1032200E002221A70104B114A187000231370104A012013700F4A13700F4A137056
:403C00000F4A13700F4A13700F4B03221A70802203F8202CFFF788FE0C4B04221A7008BD00E100E09695FF1F096000409195FF1FAF95FF1FA495FF1FAC95FF1FAE95FF1F22
:403C4000B195FF1F9095FF1F286000401260004070B5074C064623780D461BB9FFF716FF0123237030462946BDE87040FFF7A2BFB88CFF1F0A4A002313700A4A13700A4AC3
:403C800013700A4A13700A4A13700A4A13700A4A13700A4B03221A70802203F8202C70479695FF1FAF95FF1FA495FF1FAC95FF1FAE95FF1FB195FF1F9095FF1F2860004050
:403CC000014B1878704700BFAF95FF1F0138C3B2072B0CD8074A1B01DBB2985C01329B5C00F00F0043EA0020023880B270470020704700BF0C600040431EDBB2072BF0B5BE
:403D00002FD8184E0C2404FB0064E7881B01BFB2154DC7F50077DBB2BA421D4403D9E288C2F5007292B20C2404FB0064E7780F4C47EA12271F55D7B201341F5549B90C22C8
:403D400002FB0060002242704179094AC9B29954F0BD0024A7B29742F1D20F5D01342F70F8E7F0BDB295FF1F886000400C6000400E600040431EDBB2072B0BD8064A0C21A4
:403D800001FB00200022427041791B01034ADBB2C9B29954704700BFB295FF1F0E600040F8B5431EDBB2072B07460D46144616D8B9B11B010C4EDBB21E44FFF787FFA04290
:403DC00028BF204684B200239AB2A24203D23278EA540133F8E73846FFF7CCFF02E0002400E00C462046F8BD88600040194B1A7812060AD501331B78212B28D1164B0722E0
:403E00001A80164A5A6000F059BA1B781B061ED4134B1B78DBB2202B0DD0222B17D1114B1A78114BD2B21A80104B1A7842F002021A7000F023B9084B07221A80074A5A6048
:403E40000A4B1A7842F001021A7000F05FBA0020704700BF006000409895FF1F7481FF1F01600040026000408A95FF1F8C95FF1F034B00221A70034B1878FFF77BBF00BF79
:403E80008C95FF1F8895FF1F70B50B4B0A460B4C19780C2505FB01410989064689B28A4204D91A7805FB0244228992B231461878BDE87040FFF720BF8995FF1FB295FF1F07
:403EC000064B07491A780C2000FB02125278012A02D11878FFF7FABE002070478895FF1FB295FF1F034B044A1B780C2101FB0323587870478895FF1FB295FF1F034B044A96
:403F00001B780C2101FB0323587870478995FF1FB295FF1F0A460349034608781946FFF73FBF00BF8895FF1F054BD8789A7842EA00205A781B7842EA002043EA0020704712
:403F40007481FF1F30B51A4B1A481A8801780A4492B219491A80194BCAB21C88A4B284B1174A91420CD05A681278D2B201F8012B5A6801325A601A88013A92B21A80EAE78A
:403F8000082203780F4C082B0F4B00D042B10F490D7885F080050D700F212170022101E00221217019700A4B02701A7030BD00BF9295FF1F9095FF1F006000409895FF1FEB
:403FC00008600040AD95FF1F9695FF1F2096FF1FB095FF1F074B02221A70074B80221A70064B0F221A70064A00231370054A0120137070479695FF1F2096FF1FAD95FF1F92
:404000009095FF1FB095FF1F10B5154B1A78154B02F00F021988023AD2B2114489B219801149124B188880B278B172B1586811F8014B013AE4B204705868D2B201305860DA
:404040001888013880B21880EBE7094B1A70094B1A7882F080021A70074B0B221A7010BD296000409295FF1F006000409895FF1FB095FF1F2096FF1FAD95FF1F064A0623AA
:404080001370064A01201370054B80221A70054B00221A70704700BF9695FF1FAD95FF1F2096FF1FB095FF1F054B9A683AB19A68044910709A680988518000229A60704778
:4040C0009895FF1F9295FF1F08B5124B1A78D2B21A701B78DBB21A0602D50F4A137008BD0220FFF7E1FF0D4B1B7803F06003202B05D0402B06D043B900F0FCFB04E000F06D
:40410000C5FD01E000F044FD10B9034B03221A7008BD00BF28600040AD95FF1F0060004008B50849084B01201A8809780A4492B21A80064B00221A70FFF7B6FF044B0322AC
:404140001A7008BD9095FF1F9295FF1F9695FF1FAD95FF1F08B50C4B1B78DBB2042B07D0062B09D0022B0DD1BDE80840FFF7D8BFBDE80840FFF748BF0320FFF795FF034B11
:4041800003221A7008BD00BF9695FF1FAD95FF1F08B5054B002201201A70FFF785FF034B03221A7008BD00BF9695FF1FAD95FF1F08B50A4B1A7832B11978094A41F0800188
:4041C000117000221A70074B002201201A70FFF76BFF054B03221A7008BD00BFAE95FF1F086000409695FF1FAD95FF1F074B1B78DBB2042B05D0062B05D0022B05D1FFF769
:40420000A1BEFFF7C5BFFFF7D3BF70479695FF1F10B51D4C2378DBB2DA0633D518060AD503F00F03012B2DD1FFF74EFF174B1B78190609D510BD5A0602D5FFF7D7FF03E0CB
:404240009B061FD5FFF786FF23781B061AD4104B104A1B78127813430F4A13701278934210D10A4B08491A782078D2B2000605D41A78D2B20A700A7802F00F021B789A4289
:40428000EFD110BD10BD00BF28600040AD95FF1F2096FF1FB095FF1F29600040054A00231380054A916819B191680B7092685380704700BF9295FF1F9895FF1F10B50F4C3F
:4042C00023889BB213B9FFF785FE14E00C4B02221A700C4B00221A70FFF7E0FF0A4B1A78013B1B7843EA0223228892B29A4288BF2380FFF727FE012010BD00BF9895FF1FE1
:404300009695FF1F2096FF1F0760004008B50C4B04221A700B4B80221A70FFF7BFFF0A4B01201A78013B1B7843EA0222074B198889B2914288BF1A80054B0B221A7008BDE9
:404340009695FF1F2096FF1F076000409895FF1FAD95FF1F094B1B78094B1A7B02F00302012A03D0DA7B82F08002DA7301225A73044B1A7802F0FE021A7070470E600040C1
:40438000B295FF1F0B600040094B1B78094B1A7E02F00302012A03D0DA7E82F08002DA7601225A76044B1A7802F0FD021A7070471E600040B295FF1F0B6000400B4B1B78CC
:4043C0000B4B93F8242002F00302012A05D093F8272082F0800283F82720012283F82520044B1A7802F0FB021A7070472E600040B295FF1F0B6000407047FFF73BBC0000A3
:404400007FB5144B02466D4603F11006186859682C4603C40833B3422546F7D1BAB122231370032353700C4B13F8011B04ACC9B204EB111001F00F01214411F8101C10F88F
:40444000100C907002F8041F04498B42ECD104B070BD00BF104D0100000100490801004930B51C4B01211C4A0C2000FB012483F87200657925B12479240658BF082000E0EB
:40448000802018700C2000FB012210890131C0F3072003F8020C10890929C0B203F8010CD08803F11003C0B283F86800D088C0F3072083F86900D088C0B283F86600D288C8
:4044C000C2F3072283F86720CDD1044BFF221A7030BD00BF0E600040B295FF1F0A600040074B1A78074B03EBC2035B6803F108021B7A834286BF02EBC00040680020704766
:404500009195FF1F604D0100F8B5394B1A78002A6CD018780138C0B2FFF7E2FFC368047A083303EBC404A34260D013F8082C314931488D5C805C854256D0895C13F8070CB8
:40454000884251D12D4909788A424DD113F8060C13F8056C00F07F02511E10F0800F28484FEA01114FF00C05C9B206F0030605FB020506D00127BE426F7014BF0D260726CA
:4045800005E00027012E6F7014BF092605266E711C4D01266E540C25554333F8046C4219168113F8066C167113F8056C46550020D07015891448C5F307254554158901306C
:4045C000EDB24554D5887930EDB24554D5880130C5F307254554D5880338EDB24554D2880130C2F30722425408339CE7F8BD00BFAF95FF1F1E96FF1F9495FF1F046000401A
:40460000B295FF1F0E6000400C60004008B5064B18780138C0B2FFF763FF20B143681B7900EBC300406908BDAF95FF1F2DE9F04100210C254D435F4C0131002362190929B6
:40464000635593705370D370537113819372F0D128B15949594A0B7013704B705370584B1A78002A00F0A48018780138C0B2FFF737FF4368057ADB79ED0013F0400F514B8E
:404680001A7814BF42F0010202F0FE021A700122C368D6B2083303EB050E73455FD013F8067C07F07F018A4257D10C2101FB0241B1F8088033F804CC1FFA88F8E04538BFA6
:4046C000A1F808C013F8081CDFF8ECC01CF8011013F807CC8C4540D113F8051C17F0800F4FF00C0701F0030107FB024715D04FF0010C614587F801C014BF4FF00D0C4FF0ED
:40470000070C87F805C013F8027C07F0F707022F19D1032917D02C4914E04FF0000C012987F801C014BF4FF0090C4FF0050C87F805C013F8027C07F0F707022F03D10329EE
:4047400001D022490E700C21514313F806CC671887F804C013F8057C675408339DE70132092A95D1C36803F1080215440833AB420AD013F8062C0C2002F07F0200FB0242AE
:4047800013F8081C9172F1E7FFF740FF104B0022186001230C2101FB0341CA80098901330A44092B92B2F5D1BDE8F041FFF758BEBDE8F081B295FF1F1E96FF1F9495FF1F22
:4047C000AF95FF1FB195FF1F8995FF1F8895FF1FA895FF1F114B197801F07F014A1ED2B2072A19D80E4B0C2000FB01339978120141F0010199700021D9705978D2B241F0B1
:40480000020159701B7913F0800F064B14BF8D218921D154FFF732BC0020704704600040B295FF1F0E60004010B51A4B1B7803F07F035A1ED2B2072A29D817490C2000FB8C
:4048400003139978120101F0FE0199700021D9701249D2B2545C04F07F045454597801F0FD01597019795B7811F0800F0C4905D0012B01D1505406E00D2303E0012B0CBFB3
:40488000082309235354BDE81040FFF7F7BB002010BD00BF04600040B295FF1F0C6000400E60004010B50E4B1C780E4BE4B218780138C0B2FFF714FE43681B79A3420CD961
:4048C000012C0AD8084B094A195D0120C9B21155074A1278D2B21A5510BD002010BD00BF04600040AF95FF1F1E96FF1F9495FF1F0260004038B5904C002323808F4B1A7888
:4049000012F0800F8E4A127800F08F800A2A00F21181DFE812F05F000F010F010F010F010F010B000F017F000F018300854B1A78012A09D1844B1A78844B03EBC2035B681B
:404940005B686360122311E01A78022A13D1804B1878FFF7C5FD002800F0EC80436863606368DA7863689B7843EA02232380BDE83840FFF7A3BC1B78032B27D1754B0022E7
:404980007349D0B20D78854207D80878724AEE2808BF13460A788AB106E0187801320028F3D019780B44EBE7694A6C491278097C914203D16A48FFF723FD694B1A78002AC3
:4049C00000F0B8801A78D2B2228019E0BDE8384000F05CB91A7812F0030213D0022A40F0A980604B22801B785F4A03F07F030C2101FB03239A785D4BD2B21A7000225A70BA
:404A00006360B4E702232380594B1978574BC9B21970F4E701232380564BF1E701232380504B554A1B781344EAE7013A0A2A00F28180DFE802F0367F527F067F7F7F0B7FF0
:404A40002200434B1A784D4BD2B260E0404B1B7803F0FF0453B9474B1A78944266D01C70474B01201870FFF7E1FD5FE0601EC0B2FFF736FD0028EED15CE0FFF713FF002802
:404A800058D0384B01221C783E4BE4B21C703C4B1A70FFF739FD384B1A5D3B4BD2B21A5544E01B7803F00303012B32D00CD3022B40D103F1804303F5C0431B78002B39D1C4
:404AC000BDE83840FFF7B0BE214B1B78012B31D1274B1A7802F0FD0219E01B7803F00303012B16D00BD3022B24D103F1804303F5C0431B78F3B9BDE83840FFF76BBE144BF0
:404B00001B78012B16D11A4B1A7842F002021A700CE0144B1A78012A0CD81B781B4A0C48DBB2D15C007821EA0001D154BDE83840FFF7A4BA002038BD9895FF1F006000400C
:404B400001600040036000409195FF1F604D010002600040BC4D01004C4D01009E4E01002396FF1F04600040B295FF1FB98CFF1FB195FF1FAF95FF1F1E96FF1FAE95FF1F90
:404B8000AC95FF1FA495FF1F9495FF1F2196FF1F084B1B781B060AD5074B1B78012B06D1064B074A5A6012781A80FFF787BB0020704700BF00600040016000409895FF1F7B
:404BC000244D0100124B1A7802F001021A709A7802F0FC029A70DA7A02F0CF02DA72DA7A42F03002DA72DA7A02F0F002DA72DA7A42F00F02DA725A7842F001025A70054ADB
:404C00004FF6FF7313805380034B00221A707047004F0040044F0040034F0040074B1A7842F001021A701A7C42F001021A7493F85D2B42F0010283F85D2B7047A3430040CE
:404C400010B5054C23781BB9FFF7BCFF01232370BDE81040FFF7E2BFBB8CFF1F064A0123136002F688321268E0211064034A1170A2F540721360704780E100E000E400E088
:404C8000014B01221A60704780E200E0104B1B7803F00303012B0CD0022B0ED10D4B0E4A1B780C2103F07F0301FB032308339B7801E0084B1B78DBB200E00023074A1268A0
:404CC000D35C022B01D1FFF791B80020704700BF0060004004600040B295FF1FA895FF1F31F0004310B408D00F4AA3F5801494420AD804205DF8044B704700280CBF0220DC
:404D000003205DF8044B7047B3F5801F01D20320F7E7064A934201D00020F2E7D0F1010038BF0020EDE700BFFFFFDF7F0000F07F08B503491B2202200AF0E2FF00F09CFDE8
:404D4000B04E010030B40024234610F8012B02F07F059D402C43150603F10703F5D41F2B06D8520604D54FF0FF3202FA03F31C430C6030BC704700BF2DE9F041502884B010
:404D80000746884646D000F00F010C2940D8DFE801F0072C3B07193F3F3F3F211D071900164656F8044B44B107F07001102908BF904644443A0648BF246830461C6004B0A8
:404DC000BDE8F081146802F10806ECE7164636F9024BE8E7104603A901920093FFF7B2FF039C0646019A009BDDE700242546164616F8011B01F07F00A840090644EA000444
:404E000005F10705F4D4CEE7164636F8024BCAE708F022FAD61C26F0030656F8044B30461C6004B0BDE8F081FF2808B50FD000F07003202B18D00CD9402B10D0502B06D013
:404E4000302B0AD1BDE80840084607F063BF002008BD002BFBD0102BF9D008F0FDF90846BDE8084007F046BF0846BDE8084007F055BF00BFF8B50C461646074608B107F047
:404E800039FF306025780134FF2D33D039462846FFF7CAFF22460146331D2846FFF76CFF04462378601CFF2B337529D0102300223375134610F8011B01F07F049C400906AA
:404EC00042EA040203F10703F4D40244F2600378002473750130234610F8011B01F07F059D400A0644EA050403F10703F4D404443461F8BD70602378601CFF2B3375D5D18D
:404F00000023F360E3E700BF2DE9F04F00F0030393B00025012B0E461446069500F0A6800ED3022B0AD13046214607F0CFFE002800F0A480092013B0BDE8F08F08F08CF9E1
:404F400000F008005FFA80F84FF0010912AB43F82C6D002100930C220B46204607F06AF9204607F0CDFE07460028DCD00CAA394620460392FFF77EFF214683469DF84400A6
:404F8000FFF752FF0BAD00210E900B460F220095204607F027F90B9A109B22F001029B4548EA090802F1FF3939D29DF845A000215046FFF739FF5A46014609AB5046FFF75B
:404FC000DBFE9DF845A0834600215046FFF72CFF5A4601460AAB5046FFF7CEFE9DF845A0834600215046FFF71FFF5A4601462B465046FFF7C1FE002183460B461BF801EBDE
:405000000EF07F029A401EF0800F41EA020103F10703F3D1099A0C9B134499451DD24FF000094FF0010B002518F0010F4CD0BBF1020F3FF478AF0AAB0021204600930D221B
:405040000B46069C07F0CEF80A9B7462B562F762C6F83090336206206DE70A9A13449945C0F09280109B9B459FD3D8E700F0080000F0FF0830B14FF0020967E7082013B05E
:40508000BDE8F08F0CA9009103911046434641460D22356A07F0A6F80C9B9D42EBD112AB43F82C6D00934146434620460C2206F1280507F0BFF895E8A002B9F1000F00F085
:4050C00017814FF0030B3DE018F0080F36D0BBF1010F00F01C81002DC0F2158112AB002143F8286D0A46009320460B4607F0A2F812AB43F8245D0021009320460B460122EB
:4051000007F098F80AAD00210B4620460F22009507F068F80A9B002103F001032046009549EA03040F220B460A9407F083F8BBF1020F36D0072013B0BDE8F08FBBF1010F2B
:4051400000F0D680002DC9DA3946039A2046FFF791FE9DF844002146FFF766FEAA000F9F82F00302D2430E90BB58174433B13A46002352F8041F01330029FAD10422B36231
:40518000F06277633263A9E70B9B7BB10D9A03EB020969B9B9F1000F3FF4C5AE4FF0020B41E7304600F012F90720C4E69946F0E7109B01395818B9F1000F3FF4B4AE002874
:4051C000ECD018F0080305937ED047224E2355213270737043224623B170F2704F215222337100237171B271F3714FF0000B049408A9FFF7A7FD09A98246FFF7A3FD089BE0
:40520000002B2FD031DD9DF84400FF285AD000F00702042A3FF692AE01A151F822F000BF5F5200003D4F0000595200005F52000035520000DB005B420F9A0E991A440AABB9
:40524000FFF79AFD0A99F9B1002E54D1099B002B45D00AEB0300CBE75B005B42ECE79B005B42E9E74FF0010BF0E701330EB1059A7AB10F9AC3EB837352F82330D3F101030F
:4052800038BF0023002BE1D0049C089D4FF0030BCAE60F9AC3EB837352F82310069802EB83030B901C4619B917E054F8041FA1B12144304600222B4600F032F80028F4D0E0
:4052C0000023DFE70023B7E7F379012B0CBF56F8203C06F15803069387E70123D2E7049CBBF1000F3FF41FAE1D464FF0020B9BE6304600F001F93046002206AB00F010F895
:405300000028C1D1A2E700F0C3FA00F0C9FA00F0B3FA00BF1EB400F08BF81EBC07F01CFBF0B5027883B0472A0D461E461AD00023244C0193226820469368984780B1019B1F
:4053400002271B6801932A68214628461469012301AAA04710B1019B3846336003B0F0BD0127F0E743784E2BE1D18378552BDED1C378432BDBD10379462B16D00379432B64
:40538000D5D143792B2BD2D183792B2BCFD1C379012BCCD804D050F8204C58300190C9E750F8200C50F8784CF8E743794F2BE5D18379522BE2D1C379002BDFD10193024CD3
:4053C000B8E700BFD44F0100684F010010B5044600F070F82378A4F12002472B04D0836823BB8260012010BD63784E2BF7D1A378552BF4D1E378432BF1D12379432BEED10B
:4054000063792B2BEBD1A3792B2BE8D1E379012BE5D854F8043C0133012B44F8043CE1D1836844F8083C8260012010BD00F024FA08B500F03FF8836883B393F82020472A6A
:4054400004D00022826003F1200008BD93F821204E2AF6D193F82220552AF2D193F82320432AEED193F82420432AEAD193F825202B2AE6D193F826202B2AE2D193F82720E9
:40548000012ADED8DA69013ADA61002ADBD19A6900218260996103F1200008BD00F0ECF903460846194607F0DFBE00BF00487047BC8CFF1F00487047BC8CFF1F0378472BCE
:4054C00001D00020704743784E2BFAD18378552BF7D1C378432BF4D10379432BF1D143792B2BEED183792B2BEBD1C07901288CBF00200120704700BF10B5044628B100F08D
:40550000CFF92046FFF7DAFF08B900F0B5F954F8140C00F09DF900BF2DE9F04F83B00446FFF7CCFF68B154F8185C204654F8146CA76AD4F83080646B00F0B2F9284600F06B
:40554000A3F9204600F0ACF900F0A2F900F0A8F900F092F900F0A4F9FFF7A8FF036893F82720012A27D003F178020025009228F0030803F1200BAA46BA4528DA236823B3BB
:4055800003EB04095846494600226B46FFF7C8FE98B9D9F8003002AA42F8040DD3F810C0484611490123E047002818BF01250AF1010A4444E0E71A68D7E700F0B1FA00F0D8
:4055C000B5F900F0B3F9FFF7A5FE9946DAE745B1042000F0F5F9054B03490360044A00F057FA304600F034F928500100E84F0100F1560000F0B5036885B00024102715461C
:405600009E6912686B4600948DF8044003940297B0479DF8043003F00603062B05BF009B012020462B6005B0F0BD00BF0098904214BF01200620704710B5034B0446036031
:4056400000F030FB204610BDF84E010010B5054B0446036000F026FB204600F0ADF9204610BD00BFF84E010038B515461C4600F02FFB20B1082206232560E260237138BD55
:40568000F8B516461C4607460D4600F021FB08B9032C00D9F8BD2B68394632465B6928469847F8BDF0B583B0089C0A9D1746AC4206460CD03046194600F00AFB20B10B9A2F
:4056C0000123146017719371002003B0F0BD0999019300F0FDFA019B0028EBD00B9B5F71F2E700BF014B0360704700BF584F0100014B0360704700BF584F010000487047C3
:405700008C4F0100004870479C4F010010B5034B0446036000F050F9204610BD584F010010B5034B0446036000F046F9204610BD584F010010B5034B04460360FFF77CFFD3
:40574000204610BD4050010010B5054B04460360FFF772FF204600F02FF9204610BD00BF4050010070B584B0089C0D469442064607D0B0682946056800942C6AA04704B039
:4057800070BD19460392029300F0A2FA039A029B0028EED00620F2E72DE9F04F884685B019461F46924683460E9EDDF84090119D00F08EFA044698B1B8F1000F2E6085F8FE
:4057C00004A022DB46440024B14514BF4FF001094FF00609204685F8069005B0BDE8F08F4E4517D0DBF808000F9B046801930096CDF808900395E469414652463B46A0474A
:405800000446204605B0BDE8F08F18F1020F0AD00024F6E758460F9900F05AFA0028E1D085F805A0EDE70123AB710024E9E700BFF8B507460E4615461C46FFF715FF30B9A0
:40584000B8683146066823462A46B469A047F8BD08B5804707F000FD00F022F807F0FCFC0C46054600F062F8013401D0FFF752FD2846FFF751FE00BF08B5024B1868FFF7FC
:40588000E7FF00BF7C81FF1F08B58047FFF7F4FF08B5024B1868FFF7F7FF00BF8081FF1F38B50446FFF706FE217803684729A4F1200205D0002B31D11C460260204638BDEA
:4058C00061784E29F6D1A1785529F3D1E1784329F0D121794329EDD161792B29EAD1A1792B29E7D1E1790129E4D854F80C5C002D11DB013541689A4201F1FF3144F80C5C4F
:4059000041601CBF44F8103C02602046646A06F05FFC204638BDC5F10105EBE7FFF7ACFF013101D0FFF7F6FCFFF7F6FD08B5FFF7BDFD0246006800283DD090F820104729A4
:4059400006D0BDE8084000212030116006F042BC90F821104E29F4D190F822105529F0D190F823104329ECD190F824104329E8D190F825102B29E4D190F826102B29E0D152
:4059800090F827100129DCD84169002905DB013908D04B1C0DD0416108BD0131FBD103691360F8E70169BDE808402030116006F011BCFFF761FF08BD08B107F0A7BE70475C
:4059C00038B500F18005284607F098FE044638B120460021802208F097FA04F1800038BD0B4AB5F5007F116807D80B46D80706D50134042C4FEA5303F8D1FFF73DFF012009
:405A0000A040044B0143116003EB4424E0E700BFC88CFF1FD08CFF1F0A4B984203D303F50062904202D3803807F070BEC31A01215B0A01FA03F3044A116821EA030111603B
:405A4000704700BFD08CFF1FC88CFF1F012810B51AD8A1F12803BFF35F8F53E8002F013A43E800200028F8D1BFF35F8F5AB951F81C3C01F158040BB1204698472046BDE8F8
:405A80001040FFF7C9BF10BD51F8140CFFF7E0FE2DE9F84F04460F469046FFF70BFD034659681C481C4AD0F800A04E1C10681B4A5E604FF04E0C2B234FF0550E0021A4F1BE
:405AC000580543264FF0010B4FF0470944F86C0C04F857CC04F856EC04F8511C44F8502C04F8533C04F8523C44F8787C44F8748C44F880BC44F870AC04F8589C284604F829
:405B0000556C04F8546C06F015FF2846FFF7C8FEFFF7B2FE8081FF1F7C81FF1F4D5A000010B5FFF7C7FC42680368013242606BB193F82020472A0BD00022026003F12004F6
:405B4000204606F01BFF2046FFF7AAFEFFF794FE93F821204E2AEFD193F82220552AEBD193F82320432AE7D193F82420432AE3D193F825202B2ADFD193F826202B2ADBD18D
:405B800093F82720012AD7D85A6952425A61D5E770B53D4B82B01A78002A36D101241C7000F0B0F800285CD04068002103784FF0FF322A2B0CBF0519054602AB43F8042DD6
:405BC00028460A4605F00CFC304C064623683048DB680121302207F057FD019B7BB123682846D96807F08AFB23682A48DB680121022207F049FD019B8BB1FFF791FF2368F3
:405C00003046D96807F07AFBEEE7204B01211B681D22DB68204807F037FD07F01DFB304607F074FDE9E701290D4627D1FFF738FE03689B689847236806462946DB681748B4
:405C40000B2207F021FD23683046D96807F056FB23680A20D96807F017FBFFF767FE07F0FBFA0A4B21461B682D22DB680C4807F00BFDF4E7FFF75AFEFFF74CFBFFF710FE84
:405C8000FFF754FEEBE700BFD094FF1FB085FF1FBC500100F05001009C50010024510100F4500100014B0360704700BF5051010000207047002070470020704710B5034BE1
:405CC00004460360FFF778FE204610BD50510100814208B511D0406803782A2B0BD049680B782A2B08BF013108F0F2FBD0F1010038BF002008BD002008BD012008BD00BF73
:405D0000FFF7E6BF08B5FFF7D5FB006830B190F82730012B04BF00687838006808BD00BF70B44C1E4A2C2CD8DFE804F03C3C3C3C2B2B2B2B26263C262626262626262626ED
:405D40002626262B27272727272727273C26262626262B26273D3C2B3C27273D2B2B26263C3C3C3C3C263C3C263C2B2B2626262B2B2B2626263C3C00CAB144698569AC426C
:405D800002DB002070BC704704EB440506690134AD00446174190CD071556260A360204670BC70471AB1002BE7D11846EAE71046E8E72046E6E700BF30B443698469A34242
:405DC00009DA03EB430405690133A40043612B1901D001B112B9002030BC70470020285559609A60184630BC704700BF2DE9F041C5680446884617462B780E4617E0562BE4
:405E000022D04B2B2DD1236B0135002F03F10603E56023630CBF1B211E21002213462046FFF77EFF3060D0B1E568061D2B78722BE5D1236B0135002F03F10903E560236372
:405E40000CBF19211C21E8E7236B0135002F03F10903E56023630CBF1A211D21DDE7BDE8F081BFB9462B15D1464513D01D241E201C2108E01B2A10D0192A00D1197003F19E
:405E80000408464506D0D8F800301A781A2AF1D11C70F4E73046BDE8F0811870EFE700BF10B4C4680A462378522B10D04F2B03D008465DF8044B7047036B20210333036354
:405EC0000134C46000235DF8044BFFF729BF036B1F2102330363F3E72DE9F041D0F80CE080469EF800400F462E2C29D073462E2C14D15C78303C092C10D89C78981CA4F190
:405F00003002092A1AD8DD1C2C782B46A4F13006092E05F10105F7D92E2CEAD0CEEB03027146C8F80C304046FFF746FF3A4603464B214046BDE8F041FFF7F2BE0346D6E7AB
:405F40009EF80130A3F16102192A0CD80EF1020214781346A4F16101192902F10102F7D95F2CF5D0C3E75F2BC0D1EFE72DE9F003C2681378532B03D00020BDE8F0037047EC
:405F8000531CC3605378ABB1931CC36053785F2B52D10024036A9C42EED2836AC2690133836252F82400BDE8F0037047A3F14102192A46D9826812076AD400296AD13F4A5A
:405FC00002F1C40502E01C32AA42D5D014789C42F9D15569002D6AD043698469D2F81880A34262DA03EB4307D0F810C0BF0001331CEB070643615FD04FF018090CF807900A
:4060000037467560C6F80880C76200294AD0D5681269016BA34211440163ADDA03EB43010469013389004361631843D01820605418465D609A60A0E7A3F13005EAB2092A65
:40604000B4D8002212E002EBC20403EB8403A3F13004A24290D8C16822460B784D1C1BB1C5600B785F2B11D0A3F13005E9B2A3F141040929E4B2E6D9192C3FF67DAF02EB91
:40608000C20403EB8403A3F13704E2E7013481E7012194E7C2681178433901298CBF002101218CE755689268B3E70027ACE784694369AAE7184660E73746A5E768510100DC
:4060C000D0F8003170B5FF2B04460D4606D05A1CC4F80021E55484F8045170BD00261946D0F80C21D0F8083180F8FF609847D4F8202133460132C4F820210122C4F8002174
:40610000E55484F8045170BD30B40268044613786E2B18D00025A3F13002092A18D822680020013200EB8001226003EB410112F8013BA1F13000A3F130010929F2D905B1FB
:40614000404230BC7047531C036053780125E2E70020F4E74369826910B5934213DA03EB43020169920001338C18436108D040238B540C30FFF7C8FF23466060184610BD43
:406180002346184610BD0023184610BD10B5C36804461A785F2A0BD06E2A06D00C30FFF7B3FFE3681A785F2A06D04FF0FF3010BD00200133E36010BD0130FAE738B5C36876
:4061C00004461A78542A01D0002038BD0133C360FFF7DCFF051EF7DBA16A6369A26901319342A162F0DA03EB430221690133920063618B18E8D005248C545D60184638BDD1
:4062000008B5C3681A785F2A01D0012008BD013340F80C3FFFF778FFC043C00F08BD00BF70B504460C30FFF76FFF061E32DDE56863685B1B9E422FDCA268AB195207E36005
:4062400015D4092E0CDD28461449082207F04CFD30B92B7A2E2B10D05F2B0ED0242B0CD0294632462046FFF7A7FDE06270BDAA5D242A04BF0133E360E3E76B7A4E2BEFD1B9
:40628000236B204616339E1B266305491522FFF793FDEAE7002070BD0020E6E7A0580100AC58010038B5044629B9C3681A7832B15A1CC2601978682912D0762901D0002066
:4062C00038BD04F10C052846FFF71EFFE3681A785F2AF4D10133E3602846FFF715FF03E004F10C00FFF710FFE3681A785F2AE6D10133E360012038BDD0F810310246C3B1B0
:406300005A680B68906870B102782F2A0DD1002B04DC09E002782F2A07D143B18068013B0028F7D17047704701D0002070474068704701211846C2F81811704738B50C46E9
:40634000054691B323784A2B27D8DFE803F02E26262626302E2B2B2626262626262626262626262626262E26262626262626262626262626262E2626262626262626262E1D
:406380002B2626262626262626262626262E262626262E262E26262E2E0028466168FFF7CDFF18B9A468002CCCD1002038BD2846211DFFF7A1FF0028F7D003782F2BF4D17B
:4063C00038BD00BFF0B55368946801330B44A34283B015460E46074613D8EC680CB103B0F0BD95E8090032463946184407F0B0FC95E80C003244D4546B681E446E6003B041
:40640000F0BDD268002AEAD11CB9022B4FF0020402D96400A342FCD82868214607F0EEFD034610B12860AC60D7E72868019307F06DF9019B01222B606B60AB60EA60CEE77C
:406440002DE9F041C36805461A784C2A02D00020BDE8F0815A1CC26059785F293AD05A290DD10132EA602846002100F0EFFDEA681378452BEBD10132EA60BDE8F08100F07F
:4064800003FA07460028E2D00378272B33D0E9680B786E2B28D04FF03B08452B34D0002BD5D04B1C01E0002CD1D0EB601E4613F8014B452CF7D1721A2846FFF77DFC3A4680
:4064C000034641462846FFF72BFCEA681378452BBDD1D0E79A1CC2609B785A2BC1D0452B4FF00000B3D1C6E74A1CEA604B784FF03C081146D1E743681A7C002AC7D05A6805
:406500002B6B9B1A2B63C2E70022D5E7F0B5C16883B00B780446493B012BC76A1ED84A1CC2604B78452B45D0002102AE46F8041D493B0F2B35D8DFE803F02F2F34143434C3
:40654000343434343434343434080132E260204601F06CFAE3681A78452A27D0002003B0F0BD2046FFF76CFF054620462F212A460023002DF2D0FFF7D3FB306000F10806AD
:406580000028EBD0E2681378452BD1D101980132E260E76203B0F0BD2046FFF7B7FF0546E3E7204600F070F90546DEE70133E3600546DAE702310022C16013462F2103B00F
:4065C000BDE8F040FFF7ACBB2DE9F041C26882B0137805464C3B0E2B6DD8DFE803F02C6C316C6C6C6C176C2C6C6C6C6C080001320021C26000F02AFDEB6806461978452926
:4066000000F0D180002002B0BDE8F0815378742B69D00021FFF7AAFCEB6804461B78492B50D12846FFF772FF2246034604212846FFF776FB01E001F0BBF802B0BDE8F0813F
:406640000132C26001A90122FFF7D0FB07460028D8D028460021FFF723FCEB6880461C780026002C00F08E80442C00F08280A4F13002D2B2092A5CD9A4F16102D2B2192AA5
:4066800057D9432C55D0552C53D04C2C51D0532C00F08480492C7AD0542C00F0B380452C00F0D8804D2C6DD1002E6BD05A1CEA605C781346D5E701F07BF8EB6804461B78EE
:4066C000492B03D0204602B0BDE8F081002899D02B6A6A6A934295DAEA69591C42F82300284629629EE702326549C2600322FFF763FB0446284601F05BF8224603460121F8
:406700002846FFF70DFB2A6BEB6803322A631B780446492BD6D100283FF474AF2B6A6A6A9342BFF66FAFEA69591C42F82300296277E7284601F03CF8CEB1012132460346B9
:406740002846FFF7EDFA0646EB68532C1C7888D0452C8CD0B6B12B6A6A6A934212DAEA69591C42F82360EB6829621C7879E70646EAE75B7803F0DF03542BDAD1284600F0C2
:4067800083F8D9E70020386002B0BDE8F081002EF8D02846FFF7BAFE0421CFE728460121FFF7E4FBC8E75A1CEA605A78732A3DD0642A2BD04FF0FF372846FFF705FF044631
:4067C00020B10378442B01D0462B29D17B1C25D06B69AA69934213DA03EB43022969013392006B618B1803D0452088549F605C60284632460221FFF793FA02B0BDE8F08150
:406800000023F5E72846FFF7D9FC95E70233EB602846FFF7BBFC071ECEDAF3E62346E7E72846FFF7EDFC0028D0D1EBE60233EB602846FFF7E5FC00283FF4E4AE28461149CB
:406840000E22FFF7B9FA3246034602212846FFF767FAF2E63E60002E3FF4D4AEB8F1000F04D0019BCDF80480C8F80430EB681A78452A7FF4C7AE0133EB600198DDE600BF02
:40688000D4580100C4580100F0B5C26883B013780446722B54D0562B52D04B2B50D0A3F130014A297DD8DFE811F0A200A200A200A200A200A200A200A200A200A2007C0098
:4068C0007C007C007C007C007C007C00A7007C00CF00FF007C00DC00F2007C007C007C007C007C007101A200C101A7017C00B401CE01EF0107027C007C007C007C00A20000
:406900007C007C007C007C007C007C0018021802180218021802180218021802180218027C0018021802180218027C007C007C0018021802890018021802180218021802D4
:40694000204601A90022FFF751FA054648B32046FFF79AFF286020B302781F3A012A23D9019AF2B1236A616A8B421ADAE1695D1C41F823200198256203B0F0BD204601F0A7
:4069800055F84121024600232046FFF7C9F9019038B1E3681A7822B15A1CE2601B78452B1AD0002003B0F0BD019A416842602B6801932960019A002AD4D1F2E70132E26002
:4069C0002046FFF72DFC2821024600232046FFF7A7F901900028E4D0236A626A9342E0DAE269591C42F8230001982162DAE72046FFF7EAFD0190EDE7511CE16053785F2B68
:406A000000F07782303B092B00F27B820A460132E2601378303B092BF9D9521A2046FFF7CBF90546002830D0E1680B785F2B2CD10131E1602046FFF727FF2A4603462A21D3
:406A40002046FFF76DF9D5E70132E2602046FFF71BFF2521024600232046FFF761F90190B8E7531CE36053780121592B04BF0232E260204600F0CCFA01462046FFF710FAF1
:406A8000E3681A78452A00F039820020B2E70132E2602046FFF7F8FE2621024600232046FFF73EF9019095E7531CE3605378002B3FF477AF931CE3605378463B302B3FF63E
:406AC00070AF01A151F823F0DF6D0000A3690000A3690000A3690000A3690000A3690000A3690000A3690000A3690000A3690000A3690000A3690000A3690000A369000091
:406B00007D690000A3690000A3690000A3690000A3690000A3690000A3690000A3690000A3690000A3690000A3690000A3690000A3690000D36D0000A3690000A369000087
:406B4000AB6D0000836D00005B6D0000A3690000336D0000036D0000A3690000A3690000A3690000A3690000B56E0000A36900009F6E0000A3690000A36900007B6E0000BC
:406B80007D690000A3690000456E00000132E2602046FFF779FE01AE0746314620460122FFF724F9054600283FF46FAF2046FFF76BFE286000283FF468AFB54215D0017801
:406BC000A1F11F02012A40F2A48129290DD0019A002A3FF45AAF236A616A8B42BFF655AFE169581C41F8232020623A4620462B21019BFFF795F8FDE60132E2602046FFF791
:406C000043FE2221024600232046FFF789F80190E0E60132E2602046FFF736FE2321024600232046FFF77CF80190D3E60132E2602046FFF729FE2421024600232046FFF75F
:406C40006FF80190C6E65378A3F13002092A05D95F2B03D0413B192B00F2638120460021FFF784F9E36801901B780546492B7FF499AE2046FFF74AFC2A4603460421204613
:406C8000FFF74EF80190A5E62046FFF797FAE36801901B78492B7FF49DAE00283FF481AE236A626A9342BFF67CAEE269591C42F82300019D2162DCE70132E2602046FFF785
:406CC000AFFA01902046FFF7DFFD21210246019B2046FFF725F801907CE66169A069613BA04D03EB8303814205EB8303C0F2F480002043685968236B01320B44E2602363FD
:406D000050E66369A269934280F2F58003EB43022169920001338818636100F0ED80924D27238B542B4645605A68236B1344236338E66369A269934280F2DD8003EB43022F
:406D40002169920001338818636100F0D580874D27238B542B464560E6E76369A269934280F2C98003EB43022169920001338818636100F0C1807E4D27238B542B464560B1
:406D8000D2E76369A269934280F2B58003EB43022169920001338818636100F0AD80754D27238B542B464560BEE76369A269934280F2A18003EB43022169920001338818BB
:406DC000636100F099806C4D27238B542B464560AAE7204669490422FEF7EEFFE2E56369A1698B4280F2A980216903EB4305013301EB850563612C2301952B709378303BF4
:406E0000092B8CBF002301232B81002B40F097802046FFF739FD6860019B5B68002B3FF4C0AD04F10C00FFF76FF9E3681A7832B15A1CE2601A78B2F173035A425A41019898
:406E40004281AFE593785F2B7FD02046FFF782F90546002D00F08380E3681A785F2A7FF414AE0133E3602046FFF70EFD2A4603462D212046FEF754FFBCE56369A26993421A
:406E800039DA03EB43022169920001338818636132D03B4D27238B542B46456044E72046FFF7F2FC4921024600232046FEF738FF01908FE56369A26993421CDA03EB430259
:406EC0002169920001338818636115D02D4D27238B542B46456027E701EB41002569013180006161291837D027262E5408464B6000E700259CE50020436815E70133E36028
:406F000078E5204600F092FD054600287FF48CADBBE50199426841602B68117801932A6053E62046FFF750FB019000283FF439AD0378182B7FF450AD34E500255BE704F1DC
:406F40000C00FFF7E1F8019D62E70332E260204600F06CFD05467CE74B680846CAE6284648E500BF2C5201009854010070540100345401005C54010048540100D858010027
:406F800084540100AC54010070B5002382B0C2680193137804464BB3452B27D02E2B25D001AE17E04F2B17D02046FFF76DFC05462E2120462A460023C5B1FEF7B1FE30602E
:406FC000A0B1E26800F10806137843B1452B06D02E2B04D0522BE5D15378452BE4D1019B23B19A682AB1184602B070BD002002B070BD596808782728F5D14968087C09289D
:40700000F1D14D68216B1846491B21635A60EBE770B5C36804461A784A2A0DD071B90D462046FFF7B1FF034670B120462A462921BDE87040FEF774BE0133C3602046FFF7BC
:4070400023FC05460028EBD1002070BD2DE9F047C36805461A780E46472A34D0542A32D0FFF7B2FA044658B316B1AB68DB071FD5EB681B7823B3452B22D021460B78042BF9
:40708000A3F11C0200F0A480C0F0A080042A00F29D8049680029F1D12846FFF7B9FF2246034603212846BDE8F047FEF739BE64682378A3F11C02042AF9D9022B00F06E8115
:4070C0002046BDE8F087296B01F114022A631A78542A05D0472A00F0ED800020BDE8F0875A1CEA605A78002AF7D09A1CEA605B78433B332BF1D801A252F823F0097600007C
:40710000DB700000DB700000F3750000DB700000DD750000C7750000B1750000DB700000DB700000DB700000DB700000DB700000DB700000DB700000DB7000009B750000EA
:4071400081750000DB700000677500002B750000DB700000DB700000DB700000DB700000DB700000DB700000DB700000DB700000DB700000DB700000DB700000F7740000AE
:40718000DB700000DB700000DB700000DB70000041750000DB700000DB700000DB700000DB700000DB700000DB700000DB700000DB700000DB700000DB700000DB700000B4
:4071C000DB700000DB700000D1740000002163E74B68002B00F0F4801A78013A322A00F2EF8001A151F822F0B9730000B9730000C1730000C1730000C1730000C173000058
:40720000CD710000CD710000C1730000C1730000C1730000C1730000C1730000C1730000C1730000C1730000C1730000C1730000C1730000C1730000C1730000C1730000FA
