:4000000000800020110000007D0100007D01000008B5054B1A6803F53F5302331A6000F037FB00F0ADF800BFFA46004010B5054C237833B9044B13B10448AFF30080012313
:40004000237010BD2881FF1F00000000641E000008B5064B1BB106480649AFF300800648036813B1054B03B1984708BD00000000641E00002C81FF1F0881FF1F0000000025
:4000800008B562B600F06EFB01F078FE024801F02FFE00F0E5FAFEE7001C4E0E002008B5014600F06BFE00F0A1FE0028FBD0BDE8084000F073BF2DE9F84303EB830300271D
:4000C0005E0080468946144617806436C1F3871500F0AAFF28B90120013E00F021FCB6B21AE0B8015DB14044402100F063FF23880137013D4033FFB2EDB223800CE009F07F
:400100003F094044494600F055FF238828469944A4F80090BDE8F883002ED9D11020BDE8F8832DE9F843002380468946154613800A24102600F06CFF28B90120013C00F0D1
:40014000EFFBA4B215E000F051FF0746002818BF022428883946404400F072FF2B881F44BFB2002F09F1FF3318BF00269F422F8001DA002CDED13046BDE8F883FEE70000E4
:4001800008B51249124B4A1C1AD053F8106C53F80C0C53F8085C0022AA4200EB020403D0B45884500432F7E753F8040C0022824203D00025A5500432F9E710330139E2E751
:4001C00001F014FEFFF75CFFFEE700BF00000000CC22000008B5114A114B1A609A6842F400729A600023032B98BF0E4A4FEA830094BF52F823100C490C4A0133302B115060
:40020000F1D10B4B19780B4B19700B4B1A6000F017F80A4B00221A6008BD00BF0004FA050CED00E0000000007D0100000080FF1FBC7600400481FF1F08ED00E00081FF1F71
:40024000F8B572B6564B00241A7842F004021A70544B0021234418689A88063401F0F5FD302CF5D1002319464F4C00221859643420F0FF06C0B2450004EB4104AA4208D07C
:4002800004EB020EA75C9EF801E0023207F806E0F4E70433642B0144E6D1444B444D1A78192642F002021A701A7C002442F002021A742B7843F040032B703E4B1A7842F0DF
:4002C00010021A703C4A03F62E635168106803C31189198052F80A3F38490B6053684B60374B1A78A3F2A22342F0080283F8A222612283F8802703221A801B229A70062287
:4003000083F88022522203F5C0731A702D4B1A782D4BD2B21A704FF4E162A3F27F431A8041F2512223F8022C284B4FF4F0701B7803F0010343EA440400F022FA013E04F02D
:4003400003042CD0032CEFD1214A4FF480731380204907231370482000230B708870137053711D4B02221A7093F8A1231B4C42F0010283F8A123812283F8FF27184B194AB2
:400380001B78DBB203F007011B0911705370164B44221A7095E80F0007C42380F8BDFEE7E8460040681E0000981E000003500140A0430040C2430040DE200000625100403E
:4003C000224300400F010049A146004025420040044000400640004001400040B0430040CF0100496E58004076580040004700002DE9F04FADF54B7DFFF750FE002546ACE5
:400400000DF1160240F20E210A232046FFF789FE064601F067FCC20704D58D4BC0221A7000F076FA002EEAD12378413B382B00F2F880DFE813F039006900F600F6004800E2
:40044000EF00F6003F00F600F600F600F400F600EF00F600F400EF00F600CA00F400F600CD00F600F600F600F600F600F600F600F600F600F600D100D300F600F600FE0023
:40048000F6005A00F600F600F600F600F600F600F600F600CF00F600EF00E600DF00F600DC00F600F400F400A57863786D0045EA4325B4E0A57863786D0245EA4345E3780A
:4004C00045EA4305ABE0624BC0221A700D2300222370204601211346FFF7EDFD00F0A4FD0028FBD000F014FAA3E06178A378002243EA012113B28B4202F1010202DA585DB8
:40050000E054F7E7204690E0A378677843EA0727E378462B50D1EEB2C6F5807BC5F307435F4502930DF58E7CC5F30723039325F0FF0A94BF4FF0000B4FF0010B4FF000082F
:40054000E146B7F5807F05D05FFA88F00AEB0020002202E0002EF7D116E0115C0DF1180C02F80C100132B2F5807FF6D1C6F580720CEB06004946BA4238BF3A46CDF804C084
:4005800001F05AFCDDF804C062460298039908F10108CDF804C000F0B1F95FFA88F2C6F580765A45B144DDF804C001D80026C8E700F0D2F90D2300E03F230D2B237032D1FE
:4005C000E378462B2FD13D442DE0224808212CE021480DE0532325E0592323E059232370002201236370A270204603211EE01B4802211AE0442300222370627020460221F9
:4006000014E087232370952363701E23A370204603210AE0002222702046012106E00D2300E03F2323702046012100221346FFF742FD01F057FBC3077FF5E1AE044BC02296
:400640001A7000F065F90DF54B7DBDE8F08F00BFFA460040F0200000F7200000F920000010B500F0A1F810B1002000F04EF9074C237813F0C00302D12370FFF7B9FEC02325
:400680002370BDE8104000F043B900BFFA46004038B50A4C257805F0C005C02D0CD10023237040F2EE2000F03BF9257042F21140BDE83840FFF79ABE38BD00BFFA46004050
:4006C0001E4B1A78A3F65D3342F0020283F85D2B93F85F2B02F08F0242F0100283F85F2B93F8682B02F0CF0283F8682B93F8682B42F0300283F8682B93F8682B02F0F0023B
:4007000083F8682B93F8682B42F00F0283F8682B4FF40052A3F8612B4FF48052A3F8632B002283F8602B1A7842F001021A7093F85E2B42F0010283F85E2B7047004F004036
:40074000074B1A7842F001021A701A7C42F001021A7493F85D2B42F0010283F85D2B7047A343004010B5054C23781BB9FFF7A8FF01232370BDE81040FFF7E2BF4481FF1F0D
:400780000230800800F0058000BF013800467FF4FCAF7047EFF3108072B6704780F31088704700BFAFF3008038B500F00FF900F0B9F9002838D100F0EFF9072804460FD11A
:4007C0001B4B1A78900703D4012000F0BDF8F7E71A78910704D51B789B0814BF0724002400F0C0F90CBB00F0F1F800F09BF9D8B9012000F07FF9072805D04FF0FF3410E047
:400800002B789B07F9D40B48022100F0F1F80228074DF5D12B789A0703D4012000F094F8F8E700F09FF900E00424204638BD00BF224700405481FF1F4128F8B505460E4681
:4008400017461C460AD8411F3A298CBF002101213F2804D8B6F5807F29D805E00121812E28BF0121102C22D10FB301BB00F05AF9F8B92346284631463A4600F0D3F8072880
:40088000044611D11B4B1A781F4612F0020F03D1012000F059F8F5E71A78900702D51B789B0808D04FF0FF3400F05CF91FE001241DE004241BE0104B28461A7831465B78DC
:4008C00000F0F8F807280446EED13A78094B910703D4012000F038F8F7E71A789207E1D51B789B080CBF00246FF00004DCE72046F8BD00BF224700405481FF1F3F2894BFF0
:400900004FF480731023FFF797BF01BE70470000024B1A7842F001021A707047F646004010B50446B4F5004F064B05D91868FFF727FFA4F50044F5E758686043BDE81040D8
:40094000FFF71EBF0C81FF1F024B1B7A5843FFF717BF00BF0C81FF1F08B5FFF71BFF00BF00BF00BF00BF00BF00BF00BF00BF00BF00BF00BF00BF00BF00BF00BF00BF064B38
:400980001A8892B242F004021A801B88BFF36F8FBDE80840FFF702BF00480040054B00F01F001B6800F1100253F8220043F82210704700BF08ED00E000F01F0000F1604056
:4009C000490100F56440C9B20170704708B5FFF7E1FE064B1A7842F008021A701A7C42F008021A74BDE80840FFF7D8BEA043004070B506460D460024E3B2AB420CD2074BA0
:400A00001B78DB0703D40120FFF79EFFF7E7044B1B7833550134EFE7284670BD2247004020470040F0B5214D2C78A40739D5204CB6262670D5262670022626702E7806F03F
:400A4000020606F0FF0576BB202B207001D000250CE03F28FBD801EB00273F02EE5D0135F6B2B5F5807F2670F8D1F0E7AEB29E4203D2565D01352670F8E7B3F5807F01D005
:400A80000720F0BD3F28FBD800F5103001EB0021490100235A5C0133D2B2202B2270F9D1EEE70420F0BD0920F0BD00BF224700402047004070B50D4D2C78A60714D50C4CC8
:400AC000B6262670D8262670052626702D78AD0708D42070080AC9B22070217022702370072070BD092070BD042070BD2247004020470040094A137899070DD5084BB621C2
:400B00001970E12119700E211970127892075ABF187007200920704704207047224700402047004038B5FFF735FE0C4B197879B901250B4A1D7014682C400AD0146824F069
:400B40000104146000BF00BF00BF5D600C4600E00424FFF723FE204638BD00BF4881FF1F0400084010B5FFF715FE094B002259681A70012908D107490C6844F001040C6049
:400B800000BF00BF00BF5A60BDE81040FFF706BE4881FF1F04000840074B1B789B0708D5064BB6221A70E0221A700D221A70072070470420704700BF224700402047004038
:400BC000F8B5FFF7E7FD3D4B01261A78022542F001021A701A7C3A4C42F001021A7403F5E75318331E7003F8945C13F88D2C074602F07F0203F88D2C0020FFF7A5FE2378E6
:400C0000304603F0F90323702E4B1A7802F0DF021A70237833432370FFF796FE2820FFF793FE294B28461A7802F07F021A701A7802F0BF021A7023782B432370FFF784FE03
:400C40002378384643F004032370204B00241C705C70FFF7A3FD1E491720FFF79FFE17200721FFF7A9FE1B491520FFF797FE15200721FFF7A1FE18491820FFF78FFE18207A
:400C80000721FFF799FE20461449FFF787FE20460721FFF791FE30461149FFF77FFE30460721FFF789FE28460E49FFF777FE28460721BDE8F840FFF77FBE00BFA543004013
:400CC0009443004012600040F8510040846000400B15000009150000211300006514000099140000CD140000184B4FF4000210B51A604FF080721A6001221A60042402228A
:400D00001A601C60124B00241C70124B01B103221A70114B114A187000231370104A01201370104A1370104A1370104A1370104A1370104B03221A70802203F8202CFFF7B2
:400D40001FFD0D4B04221A7010BD00BF00E100E06281FF1F096000405D81FF1F7B81FF1F7081FF1F7881FF1F7A81FF1F7D81FF1F5C81FF1F286000401260004070B5074CFA
:400D8000064623780D461BB9FFF71AFF0123237030462946BDE87040FFF7A6BF5081FF1F0A4A002313700A4A13700A4A13700A4A13700A4A13700A4A13700A4A13700A4B82
:400DC00003221A70802203F8202C70476281FF1F7B81FF1F7081FF1F7881FF1F7A81FF1F7D81FF1F5C81FF1F28600040014B1878704700BF7B81FF1F0138C3B2072B0CD83B
:400E0000074A1B01DBB2985C01329B5C00F00F0043EA0020023880B270470020704700BF0C600040431EDBB2072BF0B52FD8184E0C2404FB0064E7881B01BFB2154DC7F50A
:400E40000077DBB2BA421D4403D9E288C2F5007292B20C2404FB0064E7780F4C47EA12271F55D7B201341F5549B90C2202FB0060002242704179094AC9B29954F0BD00245A
:400E8000A7B29742F1D20F5D01342F70F8E7F0BD7E81FF1F886000400C6000400E600040431EDBB2072B0BD8064A0C2101FB00200022427041791B01034ADBB2C9B299544A
:400EC000704700BF7E81FF1F0E600040F8B5431EDBB2072B07460D46144616D8B9B11B010C4EDBB21E44FFF787FFA04228BF204684B200239AB2A24203D23278EA54013308
:400F0000F8E73846FFF7CCFF02E0002400E00C462046F8BD88600040194B1A7812060AD501331B78212B28D1164B07221A80164A5A6000F04BBA1B781B061ED4134B1B7855
:400F4000DBB2202B0DD0222B17D1114B1A78114BD2B21A80104B1A7842F002021A7000F015B9084B07221A80074A5A600A4B1A7842F001021A7000F051BA0020704700BF5C
:400F8000006000406481FF1F1C81FF1F01600040026000405881FF1F5A81FF1F034B00221A70034B1878FFF77BBF00BF5A81FF1F5681FF1F70B50B4B0A460B4C19780C2507
:400FC00005FB01410989064689B28A4204D91A7805FB0244228992B231461878BDE87040FFF720BF5781FF1F7E81FF1F064B07491A780C2000FB02125278012A02D118781C
:40100000FFF7FABE002070475681FF1F7E81FF1F034B044A1B780C2101FB0323587870475681FF1F7E81FF1F034B044A1B780C2101FB0323587870475781FF1F7E81FF1FEA
:401040000A460349034608781946FFF73FBF00BF5681FF1F30B51A4B1A481A8801780A4492B219491A80194BCAB21C88A4B284B1174A91420CD05A681278D2B201F8012B9B
:401080005A6801325A601A88013A92B21A80EAE7082203780F4C082B0F4B00D042B10F490D7885F080050D700F212170022101E00221217019700A4B02701A7030BD00BF52
:4010C0005E81FF1F5C81FF1F006000406481FF1F086000407981FF1F6281FF1FEC81FF1F7C81FF1F074B02221A70074B80221A70064B0F221A70064A00231370054A0120FE
:40110000137070476281FF1FEC81FF1F7981FF1F5C81FF1F7C81FF1F10B5154B1A78154B02F00F021988023AD2B2114489B219801149124B188880B278B172B1586811F879
:40114000014B013AE4B204705868D2B2013058601888013880B21880EBE7094B1A70094B1A7882F080021A70074B0B221A7010BD296000405E81FF1F006000406481FF1FBB
:401180007C81FF1FEC81FF1F7981FF1F064A06231370064A01201370054B80221A70054B00221A70704700BF6281FF1F7981FF1FEC81FF1F7C81FF1F054B9A683AB19A6895
:4011C000044910709A680988518000229A6070476481FF1F5E81FF1F08B5124B1A78D2B21A701B78DBB21A0602D50F4A137008BD0220FFF7E1FF0D4B1B7803F06003202BF5
:4012000005D0402B06D043B900F0FCFB04E000F0C3FD01E000F044FD10B9034B03221A7008BD00BF286000407981FF1F0060004008B50849084B01201A8809780A4492B20E
:401240001A80064B00221A70FFF7B6FF044B03221A7008BD5C81FF1F5E81FF1F6281FF1F7981FF1F08B50C4B1B78DBB2042B07D0062B09D0022B0DD1BDE80840FFF7D8BF8F
:40128000BDE80840FFF748BF0320FFF795FF034B03221A7008BD00BF6281FF1F7981FF1F08B5054B002201201A70FFF785FF034B03221A7008BD00BF6281FF1F7981FF1F0F
:4012C00008B50A4B1A7832B11978094A41F08001117000221A70074B002201201A70FFF76BFF054B03221A7008BD00BF7A81FF1F086000406281FF1F7981FF1F074B1B78E3
:40130000DBB2042B05D0062B05D0022B05D1FFF7A1BEFFF7C5BFFFF7D3BF70476281FF1F10B51D4C2378DBB2DA0633D518060AD503F00F03012B2DD1FFF74EFF174B1B7862
:40134000190609D510BD5A0602D5FFF7D7FF03E09B061FD5FFF786FF23781B061AD4104B104A1B78127813430F4A13701278934210D10A4B08491A782078D2B2000605D48C
:401380001A78D2B20A700A7802F00F021B789A42EFD110BD10BD00BF286000407981FF1FEC81FF1F7C81FF1F29600040054A00231380054A916819B191680B7092685380E9
:4013C000704700BF5E81FF1F6481FF1F10B50F4C23889BB213B9FFF785FE14E00C4B02221A700C4B00221A70FFF7E0FF0A4B1A78013B1B7843EA0223228892B29A4288BF30
:401400002380FFF727FE012010BD00BF6481FF1F6281FF1FEC81FF1F0760004008B50C4B04221A700B4B80221A70FFF7BFFF0A4B01201A78013B1B7843EA0222074B1988F6
:4014400089B2914288BF1A80054B0B221A7008BD6281FF1FEC81FF1F076000406481FF1F7981FF1F094B1B78094B1A7B02F00302012A03D0DA7B82F08002DA7301225A7318
:40148000044B1A7802F0FE021A7070470E6000407E81FF1F0B600040094B1B78094B1A7E02F00302012A03D0DA7E82F08002DA7601225A76044B1A7802F0FD021A70704738
:4014C0001E6000407E81FF1F0B6000400B4B1B780B4B93F8242002F00302012A05D093F8272082F0800283F82720012283F82520044B1A7802F0FB021A7070472E60004017
:401500007E81FF1F0B6000407047FFF749BC00007FB5144B02466D4603F11006186859682C4603C40833B3422546F7D1BAB122231370032353700C4B13F8011B04ACC9B2F7
:4015400004EB111001F00F01214411F8101C10F8100C907002F8041F04498B42ECD104B070BD00BFFB200000000100490801004930B51C4B01211C4A0C2000FB012483F8B6
:401580007200657925B12479240658BF082000E0802018700C2000FB012210890131C0F3072003F8020C10890929C0B203F8010CD08803F11003C0B283F86800D088C0F3FB
:4015C000072083F86900D088C0B283F86600D288C2F3072283F86720CDD1044BFF221A7030BD00BF0E6000407E81FF1F0A600040074B1A78074B03EBC2035B6803F1080298
:401600001B7A834286BF02EBC0004068002070475D81FF1F48210000F8B5394B1A78002A6CD018780138C0B2FFF7E2FFC368047A083303EBC404A34260D013F8082C3149D7
:4016400031488D5C805C854256D0895C13F8070C884251D12D4909788A424DD113F8060C13F8056C00F07F02511E10F0800F28484FEA01114FF00C05C9B206F0030605FBE2
:40168000020506D00127BE426F7014BF0D26072605E00027012E6F7014BF092605266E711C4D01266E540C25554333F8046C4219168113F8066C167113F8056C465500200A
:4016C000D07015891448C5F30725455415890130EDB24554D5887930EDB24554D5880130C5F307254554D5880338EDB24554D2880130C2F30722425408339CE7F8BD00BFE2
:401700007B81FF1FEA81FF1F6081FF1F046000407E81FF1F0E6000400C60004008B5064B18780138C0B2FFF763FF20B143681B7900EBC300406908BD7B81FF1F2DE9F041BE
:4017400000210C254D435F4C0131002362190929635593705370D370537113819372F0D128B15949594A0B7013704B705370584B1A78002A00F0A48018780138C0B2FFF7BD
:4017800037FF4368057ADB79ED0013F0400F514B1A7814BF42F0010202F0FE021A700122C368D6B2083303EB050E73455FD013F8067C07F07F018A4257D10C2101FB024127
:4017C000B1F8088033F804CC1FFA88F8E04538BFA1F808C013F8081CDFF8ECC01CF8011013F807CC8C4540D113F8051C17F0800F4FF00C0701F0030107FB024715D04FF098
:40180000010C614587F801C014BF4FF00D0C4FF0070C87F805C013F8027C07F0F707022F19D1032917D02C4914E04FF0000C012987F801C014BF4FF0090C4FF0050C87F834
:4018400005C013F8027C07F0F707022F03D1032901D022490E700C21514313F806CC671887F804C013F8057C675408339DE70132092A95D1C36803F1080215440833AB425E
:401880000AD013F8062C0C2002F07F0200FB024213F8081C9172F1E7FFF740FF104B0022186001230C2101FB0341CA80098901330A44092B92B2F5D1BDE8F041FFF758BEF0
:4018C000BDE8F0817E81FF1FEA81FF1F6081FF1F7B81FF1F7D81FF1F5781FF1F5681FF1F7481FF1F114B197801F07F014A1ED2B2072A19D80E4B0C2000FB013399781201B5
:4019000041F0010199700021D9705978D2B241F0020159701B7913F0800F064B14BF8D218921D154FFF732BC00207047046000407E81FF1F0E60004010B51A4B1B7803F00E
:401940007F035A1ED2B2072A29D817490C2000FB03139978120101F0FE0199700021D9701249D2B2545C04F07F045454597801F0FD01597019795B7811F0800F0C4905D03D
:40198000012B01D1505406E00D2303E0012B0CBF082309235354BDE81040FFF7F7BB002010BD00BF046000407E81FF1F0C6000400E60004010B50E4B1C780E4BE4B2187802
:4019C0000138C0B2FFF714FE43681B79A3420CD9012C0AD8084B094A195D0120C9B21155074A1278D2B21A5510BD002010BD00BF046000407B81FF1FEA81FF1F6081FF1F71
:401A00000260004038B5904C002323808F4B1A7812F0800F8E4A127800F08F800A2A00F21181DFE812F05F000F010F010F010F010F010B000F017F000F018300854B1A7858
:401A4000012A09D1844B1A78844B03EBC2035B685B686360122311E01A78022A13D1804B1878FFF7C5FD002800F0EC80436863606368DA7863689B7843EA02232380BDE8D3
:401A80003840FFF7A3BC1B78032B27D1754B00227349D0B20D78854207D80878724AEE2808BF13460A788AB106E0187801320028F3D019780B44EBE7694A6C491278097C69
:401AC000914203D16A48FFF723FD694B1A78002A00F0B8801A78D2B2228019E0BDE8384000F05AB91A7812F0030213D0022A40F0A980604B22801B785F4A03F07F030C21E2
:401B000001FB03239A785D4BD2B21A7000225A706360B4E702232380594B1978574BC9B21970F4E701232380564BF1E701232380504B554A1B781344EAE7013A0A2A00F296
:401B40008180DFE802F0367F527F067F7F7F0B7F2200434B1A784D4BD2B260E0404B1B7803F0FF0453B9474B1A78944266D01C70474B01201870FFF7E1FD5FE0601EC0B260
:401B8000FFF736FD0028EED15CE0FFF713FF002858D0384B01221C783E4BE4B21C703C4B1A70FFF739FD384B1A5D3B4BD2B21A5544E01B7803F00303012B32D00CD3022B02
:401BC00040D103F1804303F5C0431B78002B39D1BDE83840FFF7B0BE214B1B78012B31D1274B1A7802F0FD0219E01B7803F00303012B16D00BD3022B24D103F1804303F571
:401C0000C0431B78F3B9BDE83840FFF76BBE144B1B78012B16D11A4B1A7842F002021A700CE0144B1A78012A0CD81B781B4A0C48DBB2D15C007821EA0001D154BDE83840B2
:401C4000FFF7A4BA002038BD6481FF1F0060004001600040036000405D81FF1F4821000002600040A42100003421000086220000EF81FF1F046000407E81FF1F5181FF1F0C
:401C80007D81FF1F7B81FF1FEA81FF1F7A81FF1F7881FF1F7081FF1F6081FF1FED81FF1F084B1B781B060AD5074B1B78012B06D1064B074A5A6012781A80FFF787BB0020F5
:401CC000704700BF00600040016000406481FF1F0C210000024B1A7842F080021A7070477A640040014B1878704700BF6D640040014B1860704700BF3A640040034B1B78AF
:401D00005B0602D5024B1B68F8E770476D6400404A64004008B5134B1A7802F0F80242F004021A701A7802F0FC021A70FFF7E6FF0D4A6FF00103136042F8203C0B4B002289
:401D40001A70203B1B780A4A0A4B1A60FEF722FD094B1A7842F010021A70BDE80840FEF71DBD00BF7A6400402A6400408D640040001C4E0E3A6400409D64004010B5054CBB
:401D800023781BB9FFF7C6FF01232370BDE81040FFF7A0BF5381FF1F104B1B7803F00303012B0CD0022B0ED10D4B0E4A1B780C2103F07F0301FB032308339B7801E0084B82
:401DC0001B78DBB200E00023074A1268D35C022B01D1FFF7A1B80020704700BF00600040046000407E81FF1F7481FF1F70B50E4B0E4D0024ED1AAD101E46AC4204D056F839
:401E0000242090470134F8E700F046FA084D094B0024ED1AAD101E46AC4204D056F8242090470134F8E770BDA4220000A4220000AC220000A422000010B50023934203D032
:401E4000CC5CC4540133F9E710BD02440346934202D003F8011BFAE770470000F0220000D000000000000000004F00400C00005100406000C051004010000000014000103C
:401E800000140140000800400140000A004C0140000200500140200001450040014F0040025200400164004001010140360A0140160B0140440C0140240D0140040E01402F
:401EC000030F01400317014003190140054001400441014006420140054301400244014001450140014601400547014005480140044C014003500140015101407E020A4B7B
:401F000031807C408D6FE6040E0118022E013002360138203E404010410549FF4AFF4BFF4DA04F015018528058045A045B045C095D995F01604062806440654066806840A2
:401F40006A806C406D206E80C050C101C9FFCAFFCBFFCDAFCE07CF01D018DA04DD09DF01E040E280E440E540E680E840EA80EC40ED20EE8000400A04100218411A041B40DA
:401F80004001478049804F805D805F807002940199809F80A740C001C202C401D018D2184050410149FF4AFF4BFF4DAF4E074F0150185A045D095F016040628064406540DE
:401FC000668068406A806C406D206E8082048402900494019F01A202A409AF02B004B102B208B402B501B601BE51C010C105C535C6C2C70EC81FC9FFCAFFCBFFCDAFCE0798
:40200000CF01D018D40FD804D904DA04DB04DC99DD99DF01E040E280E440E540E680E840EA80EC40ED20EE800004024009020A1010A019411A14200421022A403080400115
:40204000478048A049804F8050405108525059415A045B20610862108C408F209980C00CC20CC40CCA08CC08D018D218D60FD80638803E4058045F01180219808001E810E9
:40208000EA02EE0AE810EA02EE0A338136408108CC70E62099089F01A640A780590899089F01A640A780D64018109F01A640A780C6106080D8029C809C8008080B040F404D
:4020C0009C80C20EAE40AF81B410EA40EE50AC08AF44B480E80801010D010F01002A0000000000000000C0000080800080000000415652424F4F543130313030313233347C
:402100003536373839414243444546002800000000010400010000000000000000014359555342000000303030303100000000000000000012034D005300460054003100D1
:4021400030003000010000000100000050210000010000008622000001000000602100000100000043220000030000008A210000000000000000000000000000000000004D
:402180000000000088210000020A00008103080002000100820240000A000100030240000A000203040309042C0343007900700072006500730073002000530065006D0047
:4021C000690063006F006E0064007500630074006F007200100355005300420055004100520054003803430044004300200043006F006D006D0075006E00690063006100AB
:40220000740069006F006E00200049006E007400650072006600610063006500260343004400430020004400610074006100200049006E007400650072006600610063005A
:4022400065000009024300020101C032090400000102020103052400100104240202052406000105240100010705810308000A09040100020A0000040705820240000A073D
:4022800005030240000A1201000202000008B40432F2010001028001F8B500BFF8BC08BC9E46704751000000D5010000F8B500BFF8BC08BC9E4670472D000000D022000006
:4022C0000881FF1F20000000F000000000000000000000000000E02EC05D00001800000000366E0100C2010000000800000000000000000000000000000000000000000074
:40230000000000000000000000000000000000000000000000000000000000000000000000000000000000000000000000000000000000000000000000000000000000009D
:40234000000000000000000000000000000000000000000000000000000000000000000000000000000000000000000000000000000000000000000000000000000000005D
:40238000000000000000000000000000000000000000000000000000000000000000000000000000000000000000000000000000000000000000000000000000000000001D
:4023C00000000000000000000000000000000000000000000000000000000000000000000000000000000000000000000000000000000000000000000000000000000000DD
:020000040003F7
:40FFC00000000000000000000000000000000000000000000100010000000000000000000000000000000000000000000000000000000000000000000000000000000000FF
:0200000480007A
:4000000000000000000000000000000000000000000000000000000000000000000000000000000000000000000000000000000000000000000000000000000000000000C0
:400040000000000000000000000000000000000000000000000000000000000000000000000000000000000000000000000000000000000000000000000000000000000080
:400080000000000000000000000000000000000000000000000000000000000000000000000000000000000000000000000000000000000000000000000000000000000040
:4000C0000000000000000000000000000000000000000000000000000000000000000000000000000000000000000000000000000000000000000000000000000000000000
:0200000490006A
:0400000000004005B7
:0200000490105A
:04000000BC90ACAF55
:0200000490303A
:020000008F026D
:0200000490402A
:4000000000000000000000000000000000000000000000000000000000000000000000000000000000000000000000000000000000000000000000000000000000000000C0
:400040000000000000000000000000000000000000000000000000000000000000000000000000000000000000000000000000000000000000000000000000000000000080
:400080000000000000000000000000000000000000000000000000000000000000000000000000000000000000000000000000000000000000000000000000000000000040
:4000C0000000000000000000000000000000000000000000000000000000000000000000000000000000000000000000000000000000000000000000000000000000000000
:0200000490501A
:0C00000000012E16006900012E228F6BFB
:00000001FF